:020000040800F2
:1000000058220020010100081F1300083B120008BD
:100010001D13000833020008E91700080000000063
:100020000000000000000000000000004313000872
:1000300035020008000000004113000845130008C5
:100040001B0100081B0100081B0100081B01000820
:100050001B0100081B0100081B0100081B01000810
:100060001B0100081B0100081B0100081B01000800
:100070001B0100081B0100081B0100081B010008F0
:100080001B0100081B0100081B0100081B010008E0
:100090001B0100081B0100081B0100081B010008D0
:1000A0001B0100081B0100081B0100081B010008C0
:1000B000051400081B0100081B0100081B010008B3
:1000C0001B0100081B0100081B0100081B010008A0
:1000D0001B0100081B010008DD1700081B010008B8
:1000E0001B0100081B0100081B010008DFF80CD0F1
:1000F00000F07EF8004800474536000858220020EE
:100100000648804706480047FEE7FEE7FEE7FEE7B1
:10011000FEE7FEE7FEE7FEE7FEE7FEE7BD130008A9
:10012000ED000008202A04DB203A21FA02F0002129
:10013000704721FA02F3D040C2F1200291400843F7
:100140001946704740EA01039B0703D009E008C93C
:10015000121F08C0042AFAD203E011F8013B00F88C
:10016000013B521EF9D27047D2B201E000F8012BD8
:10017000491EFBD270470022F6E710B513460A4627
:1001800004461946FFF7F0FF204610BD2DE9F05F49
:100190000546002092469B468846064681464024F6
:1001A0001BE02846414647462246FFF7BBFF534621
:1001B0005A46C01A914110D311461846224600F003
:1001C00029F82D1A67EB01084F462246012000212D
:1001D00000F020F817EB00094E41201EA4F10104A5
:1001E000DFDC484631462A464346BDE8F09F000022
:1001F000064C074D06E0E06840F0010394E8070074
:1002000098471034AC42F6D3FFF774FF383A000831
:10021000583A0008202A04DB203A00FA02F10020B4
:1002200070479140C2F1200320FA03F31943904034
:100230007047FEE77047000010B590F821100024C9
:10024000022903D00421816301243DE001680A688A
:1002500022F00E020A6001680A6822F001020A60B8
:100260001A4A0168914201D1012121E0174A143252
:10027000914201D110211BE0144A2832914201D150
:10028000891515E0114A3C32914201D189140FE0E1
:100290000E4A5032914202D14FF4803108E00B4AAD
:1002A0006432914202D14FF4801101E04FF080712D
:1002B000064A083A5160012180F82110002180F897
:1002C0002010416B01B18847204610BD0800024054
:1002D0002DE9F84FDFF8A091002309F1040A0AF193
:1002E000040B1C464FF00F080BF1040E01270A689F
:1002F000A7403A40BA4272D1DFF880C14D68A5EB01
:100300000C0665452BD00DDC032D34D005DC35B350
:10031000012D19D0022D2FD11BE0112D16D0122D39
:100320002AD119E0B6F5881F19D006DCB6F5803F52
:1003300015D0B6F5801F1FD111E0B6F5001F0ED005
:10034000B6F5041F18D10AE0CB6815E0CB681B1D79
:1003500012E0CB6808330FE0CB680C330CE08B68FD
:100360002BB1012B4FF0080303D0476104E00423B5
:1003700002E0076100E00023FF2A01D8064601E001
:1003800000F104064FEA840501D9A5F1200537687C
:1003900008FA05FC27EA0C0703FA05F547EA050702
:1003A00037604D68ED0060D5354DAE6946F0010609
:1003B000AE61AD6924F0030605F001050095314DED
:1003C0007719BE68A5072D0F08FA05FC26EA0C066A
:1003D000DFF8B4C0604503D14FF0000C17E044E0F3
:1003E000DFF8A8C0604502D14FF0010C0FE0DFF844
:1003F000A0C0604502D14FF0020C08E0DFF894C0C5
:10040000604502D14FF0030C01E04FF0040C0CFAF0
:1004100005FC4CEA060CC7F808C04D68D9F8006026
:10042000ED034D4601D5164300E096432E604D681E
:10043000DAF80060AD03554601D5164300E0964357
:100440002E604D68DBF80060ED025D4601D5164375
:1004500000E096432E604D68DEF80060AD02754600
:1004600001D5164300E096432E60641C102CFFF467
:100470003DAFBDE8F88F00000004014000001110FE
:10048000001002400000014000080140000C014043
:1004900000100140001401408068084000D0012095
:1004A00070470AB1016170470904FBE70148006821
:1004B000704700003000002002480168491C0160BC
:1004C0007047000030000020074810B5016841F077
:1004D00010010160032000F08BF8002000F006F806
:1004E00000F018F8002010BD0020024010B50446AE
:1004F00007484FF47A710068B0FBF1F000F027FB79
:1005000000222146501E00F053F8002010BD0000CC
:100510002C0000201E4808B5816941F0010181616D
:10052000806900F001000090032000F061F80022D3
:1005300011466FF00B0000F03BF8002211466FF0FF
:100540000A0000F035F8002211466FF0090000F0B3
:100550002FF800221146501F00F02AF80022114601
:10056000101F00F025F800221146901E00F020F820
:1005700000221146501E00F01BF80648416821F089
:10058000E0614160416841F00071416008BD0000D8
:10059000001002400000014000F01F0201219140C4
:1005A0004009800000F1E020C0F800117047000011
:1005B000F0B40E4B1B68C3F30223C3F10704042CF1
:1005C00000D904241D1D072D01D2002300E0DB1EED
:1005D000012606FA04F56D1E0D409D409E40761ED4
:1005E000164045EA0601F0BC00F09ABE0CED00E0B2
:1005F000064A00F0070110684FF6FF03184040EA72
:100600000120034908431060704700000CED00E032
:100610000000FA05BFF34F8F05480168054A01F451
:10062000E06111430160BFF34F8F00BFFDE70000A1
:100630000CED00E00400FA052DE9F047DFF8348105
:1006400004460E46D8F8000000F00700B0420CD275
:10065000D8F8001021F007013143C8F80010D8F88D
:10066000000000F00700B04260D12078424F8007C0
:1006700005D57868A16820F0F000084378602078FC
:10068000C00742D06068012816D03968022816D009
:10069000890700294ADA796821F00301014379606A
:1006A000FFF704FF0546606841F2883101280ED04B
:1006B0000228894617D024E039688903E9E78901CF
:1006C000E7E7FFF7F3FE411B494501D916E08946EC
:1006D0007868C0F381000128F3D116E0FFF7E6FE49
:1006E000411B49450AD87868C0F381000228F5D13A
:1006F0000BE0FFF7DBFE411B494502D90320BDE8B3
:10070000F087786810F00C0FF3D1D8F8001040464D
:1007100001F00701B1420BD9016821F00701314313
:100720000160006800F00700B04201D00120E6E758
:100730002078400705D57868E16820F4E060084338
:1007400078602078000706D57868216920F4605029
:1007500040EAC100786000F03BF87968074AC1F3CD
:100760000311515CC840064908600020FFF7BEFE37
:100770000020C4E70020024000100240203A000898
:100780002C00002001480068704700002C00002069
:100790000448054900684968044AC1F30221515CD4
:1007A000C84070472C00002000100240303A00087A
:1007B0000448054900684968044AC1F3C221515CF4
:1007C000C84070472C00002000100240303A00085A
:1007D00010B512A085B00FC88DE80F0013A0144B00
:1007E000006804905968134801F00C02042A0FD0E5
:1007F000082A0DD1C1F38344C9031DF8042009D58B
:10080000596804ABC1F34041595CB0FBF1F050436F
:1008100005B010BD08485043FAE700000203040584
:10082000060708090A0B0C0D0E0F1010010200003C
:100830000010024000127A0000093D002DE9F84F37
:1008400004460078B64DC00747D06868C0F3810001
:10085000012807D06868C0F38100022809D16868C0
:10086000C00306D52868800337D5606800286ED09D
:1008700033E06068B0F5803F0BD010B1B0F5A02F29
:1008800011D0286820F480302860286820F4802067
:1008900002E0286840F480302860606888B1FFF783
:1008A00005FE064609E0286840F480202860F0E74D
:1008B000FFF7FCFD801B642873D828688003F7D5F8
:1008C0000BE0FFF7F3FD064604E0FFF7EFFD801BAA
:1008D0006428F1D828688003F7D42078DFF84482B0
:1008E00080074FF0010A4FF0000939D5686810F011
:1008F0000C0F07D06868C0F38100022809D168682E
:10090000C00306D42868800713D5206901281ED1AA
:100910000FE02069A8B1C8F800A0FFF7C7FD0646A0
:1009200004E0FFF7C3FD801B0228C5D828688007B4
:10093000F7D52868616920F0F80040EAC100286016
:100940000EE0C8F80090FFF7B1FD064605E0E5E0CF
:10095000FFF7ACFD801B022823D828688007F7D456
:10096000207800072CD57049A069D8B1C1F800A043
:10097000FFF79CFD064604E0FFF798FD801B022868
:100980000FD8686A8007F7D568484FF4FA510068B5
:10099000B0FBF1F0009000BF0098411E0091FAD228
:1009A0000EE07CE0C1F80090FFF780FD064604E011
:1009B000FFF77CFD801B022871D8686A8007F7D496
:1009C000207840075BD5E8690027C00008D4E869B3
:1009D00040F08050E861E869012700F08050009005
:1009E00053480168C90511D40168834641F48071F8
:1009F0000160FFF75BFD064604E0FFF757FD801B33
:100A000064284CD8DBF80000C005F6D5E068012862
:100A10000AD008B1052813D0286A20F00100286206
:100A2000286A20F0040002E0286A40F001002862F1
:100A3000E06841F2883B88B1FFF738FD064609E0DF
:100A4000286A40F004002862EEE7FFF72FFD811BC3
:100A500059455BD8286A8007F7D50BE0FFF726FDDC
:100A6000064604E0FFF722FD811B59454ED8286A4F
:100A70008007F7D41FB1E86920F08050E861E06991
:100A8000A8B36968C1F38101022947D0022848460A
:100A900006D0C8F86000FFF709FD044639E035E0EC
:100AA0004746C8F86000FFF701FD064604E0FFF77F
:100AB000FDFC801B022829D828688001F7D4206A11
:100AC000B0F5803F05D16868A16820F40030084384
:100AD0006860D4E908010843696821F47411084387
:100AE0006860C7F860A0FFF7E1FC044605E013E08A
:100AF000FFF7DCFC001B022808D828688001F7D526
:100B00000AE0FFF7D3FC001B022802D90320BDE84E
:100B1000F88F28688001F4D40020F8E70120F6E778
:100B20000010024000004242800442422C0000209B
:100B3000007000404FF0E0210428086903D020F045
:100B400004000861704740F00400FAE7704710B5F0
:100B5000401EB0F1807F01D3012010BD4FF0E02492
:100B600060610F21601700F0DBFB0020A06107200F
:100B70002061002010BD10B5FFF7E8FF10BD7047E1
:100B8000704730B590F83C20012A20D0012380F82E
:100B90003C30022280F83D200268546824F0700442
:100BA0005460026854680D682C435460026894686D
:100BB00024F0800494600268946849680C4394604F
:100BC00080F83D30002180F83C10084630BD0220FE
:100BD00030BD10B5040003D094F83D0010B107E01B
:100BE000012010BD002084F83C00204600F00CF8E5
:100BF000022084F83D00211D206800F009FC01203E
:100C000084F83D00002010BD08B50068B0F1804FA9
:100C100008D10548C16941F00101C161C06900F016
:100C20000100009008BD0000001002400168CA6881
:100C300042F00102CA600068016841F001010160F0
:100C40000020704770B5044690F83C00012817D08A
:100C5000012584F83C50022084F83D002068826819
:100C600022F0770222F47F4282600868502836D052
:100C70000DDC202858D005DC80B3102840D150E08E
:100C8000022070BD302852D0402839D13EE0602883
:100C90002DD070280BD0B0F5805F03D0B0F5005F89
:100CA0002ED110E02068816821F0070109E0CB68AF
:100CB000D1E90121206800F0E1FB2068816841F062
:100CC000770181601CE0CB68D1E90121206800F048
:100CD000D5FB2068816841F48041F2E71EE0CA68D4
:100CE0004968206800F0DCFB5021206806E0CA68F3
:100CF0004968206800F0E5FB6021206800F0C8FB2F
:100D000084F83D50002084F83C0070BDCA684968F2
:100D1000206800F0C5FB40212068EFE70021206833
:100D2000ECE710212068E9E720212068E6E7302180
:100D30002068E3E7704770B50446006801694FF02A
:100D40000005C943890715D4C168C943890711D46F
:100D5000E91E016101202077206880698007204614
:100D600002D0FFF7E7FF04E000F098F8204600F01B
:100D700096F8257720680169C943490717D4C168E7
:100D8000C943490713D46FF00401016102202077A1
:100D90002068806910F4407F204602D0FFF7CAFF28
:100DA00004E000F07BF8204600F079F82577206811
:100DB0000169C943090716D4C168C943090712D498
:100DC0006FF008010161042020772068C069800766
:100DD000204602D0FFF7AEFF04E000F05FF82046A7
:100DE00000F05DF8257720680169C943C90617D46A
:100DF000C168C943C90613D46FF01001016108200E
:100E000020772068C06910F4407F204602D0FFF7A9
:100E100091FF04E000F042F8204600F040F825770A
:100E200020680169C943C90708D1C168C943C90716
:100E300004D1891E0161204600F032F82068016962
:100E4000C943090609D4C168C943090605D46FF02E
:100E5000800101612046FFF792FE20680169C943C5
:100E6000490609D4C168C943490605D46FF0400159
:100E70000161204600F024F820680169C943890611
:100E80000BD4C168C943890607D46FF02001016102
:100E90002046BDE87040FFF773BE70BD70477047D5
:100EA000054910B5884206D1044802F023FBBDE88D
:100EB000104001F0A1BF10BD38000020000000204C
:100EC0007047704770B5026804461068D16853696E
:100ED00010F00F0F50D003F0010501F49076354368
:100EE0005DD0C20705D0CA0503D5E26B42F001020E
:100EF000E263420705D5DA0703D0E26B42F0020253
:100F0000E263820705D5DA0703D0E26B42F0040200
:100F1000E263020705D5DA0703D0E26B42F008026C
:100F2000E263E26B002A33D0800604D5880602D53E
:100F3000204600F0EEFA20684069E16BC0F38010B3
:100F4000090700D428B3204600F0D5FA206841698B
:100F500049061AD5416921F040014161606BA0B199
:100F60001B494163606BFFF767F9002810D0606B85
:100F7000416BBDE870400847830610D58B060ED53F
:100F80002046BDE8704000F0C4BA2046FFF799FF44
:100F900070BD2046FFF795FF0020E06370BD03069B
:100FA00006D50B0604D52046BDE8704000F0B4BB62
:100FB0004006F3D54806F1D5D168204621F040011E
:100FC000D160202184F8391000F036F970BD00009E
:100FD000E714000870B5040004D094F83900002527
:100FE00010B106E0012070BD84F83850204600F0B2
:100FF00023F8242084F839002068C16821F40051C6
:10100000C160204600F0D0FA2068016921F49041C7
:1010100001612068416921F02A0141612068C168AD
:1010200041F40051C160E563202084F8390084F860
:101030003A00002070BD000070B51C4E016800240D
:101040001B4A022003231B4D86B0B14211D1916986
:1010500041F4804191619169039301F480410491CD
:101060000102CDE9001069462846FFF731F928153D
:1010700013E0114EB14217D1D16941F40031D16171
:10108000D169039301F4003104910421CDE90010EA
:1010900069462846FFF71CF90820CDE90004694697
:1010A00028460294FFF714F906B070BD00380140DD
:1010B00000100240000801400044004090F83A301F
:1010C000202B22D1F9B1F2B190F83830012B1CD08D
:1010D00081628285C2850021C163222280F83A2084
:1010E00080F838100168CA6842F48072CA600168EA
:1010F0004A6942F001024A610068C16841F020017A
:10110000C160002070470120704702207047000036
:1011100010B50068074988420AD10121064801F04C
:101120006DFDBDE81040012203490448FFF7C6BF2A
:1011300010BD00000044004008000020B80000205E
:101140002DE9F843044690F839001E4617460D462F
:10115000202850D1A5B19FB194F8380001284AD079
:10116000012084F838004FF00008C4F83C802120AA
:1011700084F83900FFF79AF9A7848146E78426E0CE
:101180000120BDE8F883E08C401EE084A0684B4657
:10119000B0F5805F4FF000024FF0800120460096CE
:1011A00003D000F0EAFAE8B90DE000F0E6FAC8B9B9
:1011B00028882168C0F308004860206908B16D1CC8
:1011C00005E0AD1C03E0216815F8010B4860E08CD8
:1011D0000028D8D14B46002240212046009600F03E
:1011E000CCFA08B10320CCE7202084F8390084F839
:1011F00038800020C5E70220C3E790F83930202B63
:1012000018D1A9B1A2B190F83830012B12D00162E7
:101210008284C2840021C163212280F8392080F8B1
:1012200038100068C16841F08001C160002070473B
:1012300001207047022070477047FEE770B51F48D5
:1012400086B0816941F020018161816901F020014E
:101250000491816941F004018161816901F0040117
:101260000491816941F0080181618069144E00F0A8
:1012700008004FF400450490002229463046FFF74D
:1012800010F900246811CDE9000469460D48029464
:10129000FFF71EF8E811CDE90004694630460294D4
:1012A000FFF716F80120CDE90050022003906946AF
:1012B0003046FFF70DF806B070BD00000010024088
:1012C00000080140000C014010B5134886B04FF0F3
:1012D0008041016041F61F410024C0E90114092149
:1012E000C0E903148461FFF774FC00B1FEE74FF41A
:1012F0008050009069460848FFF7A4FC00B1FEE763
:10130000049404A904480594FFF73BFC002800D08E
:10131000FEE706B010BD000038000020FEE7704771
:101320000907090E002806DA00F00F0000F1E0209E
:1013300080F8141D704700F1E02080F80014704719
:101340007047704710B5FFF7B7F8BDE81040FFF7DA
:1013500012BC30B58FB001210804CDE90010002483
:10136000029402250491CDE907504FF4E010099052
:101370006846FFF763FA00B1FEE70F20CDE90A05E2
:101380004FF48060CDE90C4002210AA80E94FFF7CB
:1013900053F900B1FEE7FFF7F5F94FF47A71B0FBAE
:1013A000F1F0FFF7D4FB0420FFF7C4FB0022114645
:1013B000501EFFF7FDF80FB030BD00000D4801686A
:1013C00041F00101016041680B4A11404160016830
:1013D0000A4A11400160016821F4802101604168DE
:1013E00021F4FE0141604FF41F0181600449C003F4
:1013F00008607047001002400000FFF8FFFFF6FE93
:1014000008ED00E00148FFF796BC0000380000201E
:10141000F0B50268164C174D174E4FF08047A042AA
:1014200005D0B84203D0A84201D0B04203D122F087
:1014300070034A681A43A04205D0B84203D0A842BC
:1014400001D0B04203D122F44073CA681A434B69F9
:1014500022F08002134303608A68C2620A688262D3
:10146000A04201D10969016301214161F0BD000081
:10147000002C0140000400400008004010B58468C2
:1014800042EA032224F47F440A432243826010BDCF
:10149000826822F070020A4342F0070181607047BF
:1014A00010B5046A036A23F001030362836923F021
:1014B000F00343EA021324F00A020A438361026242
:1014C00010BD10B5036A23F0100303628469036A38
:1014D00024F4704444EA023223F0A00343EA0111E9
:1014E0008261016210BD10B5406A0021C185C184CE
:1014F000FFF7E7FC10BD0168CA6822F49072CA6069
:1015000001684A6922F001024A61202180F83A10FC
:10151000704710B590F83A10222901D0022010BD72
:101520008168B1F5805F11D00169002901681FD081
:10153000496801F07F03816A4A1C82620B70C18D89
:10154000491E0904090CC18518D02BE00269816A83
:10155000002A0268526805D0D2B20A80816A491C0A
:101560008162ECE7C2F308020A80816A891CF7E70E
:101570004A68816A4B1C83620A70E0E70168CA68A6
:1015800022F02002CA600168CA6822F48072CA6030
:1015900001684A6922F001024A61202180F83A106C
:1015A000FFF7B6FD002010BD2DE9F04104460068AC
:1015B0000169E26821F4405111430161A168206989
:1015C0000143606901432068C26841F20C639A4399
:1015D0000A43C26020684169A26921F44071114345
:1015E00041614C4920686426322788423CD1FFF78C
:1015F000DFF800EBC00101EB001061688900B0FB6F
:10160000F1F5FFF7D5F800EBC00101EB00106168C0
:10161000B8468900B0FBF1F0B0FBF6F06FF01801AE
:10162000484305EB800107EB0110B0FBF6F000F03A
:10163000F005FFF7BDF800EBC00101EB0010616899
:101640008900B0FBF1F0B0FBF6F005EB0015FFF7F9
:10165000AFF800EBC00101EB001061688900B0FB3E
:10166000F1F7FFF7A5F83BE0FFF792F800EBC001B8
:1016700001EB001061688900B0FBF1F5FFF788F815
:1016800000EBC00101EB00106168B8468900B0FBB7
:10169000F1F0B0FBF6F06FF01801484305EB800164
:1016A00007EB0110B0FBF6F000F0F005FFF770F863
:1016B00000EBC00101EB001061688900B0FBF1F0A4
:1016C000B0FBF6F005EB0015FFF762F800EBC00188
:1016D00001EB001061688900B0FBF1F7FFF758F8E3
:1016E00000EBC00101EB001061688900B0FBF1F074
:1016F000B0FBF6F06FF01801484307EB800108EBF0
:101700000110B0FBF6F0216800F00F00284488605B
:10171000BDE8F0810038014090F83910212901D04E
:10172000022070478168B1F5805F016A0BD04A1CC6
:101730000262026809785160C18C491E0904090CD3
:10174000C1840ED017E009880268C1F30801516016
:1017500001690029016A02D0491C0162ECE7891C79
:10176000FBE70168CA6822F08002CA600068C168AD
:1017700041F04001C160002070472DE9F0411E4654
:10178000174688460446069D1CE0681C1AD025B101
:10179000FEF78CFE801BA84214D92068C16821F492
:1017A000D071C1602068416921F0010141612020B0
:1017B00084F8390084F83A00002084F838000320C7
:1017C000BDE8F0812068016838EA010004D00020FB
:1017D000B842DAD00020F3E70120F9E70148FFF72B
:1017E00071BB0000B8000020FEE700000FB4054BFD
:1017F00010B503A9044A029800F018F810BC5DF86F
:1018000014FB0000B51C00083400002002E008C8EA
:10181000121F08C1002AFAD170477047002001E06A
:1018200001C1121F002AFBD1704700002DE9FF4FB4
:101830008DB00F460546002606E025280BD0DDE9D1
:101840000F1290476D1C761C28780028F5D111B036
:101850003046BDE8F08F0024A246A1460122EC49A3
:1018600000E0044315F8013F203B02FA03F0084270
:10187000F7D128782A2810D06FF02F022878A0F10D
:101880003001092914D80AEB8A0102EB410144F026
:10189000020400EB010A6D1CF0E701CF5FEA000AC9
:1018A00003D544F40054CAF1000A44F002046D1C4C
:1018B00028782E2817D115F8010F44F004042A289F
:1018C0000ED06FF02F022878A0F1300109290AD834
:1018D00009EB890102EB410100EB01096D1CF2E704
:1018E00057F8049B6D1C28786C280FD006DC4C2818
:1018F00017D068280DD06A2814D104E0742810D0BD
:101900007A280FD10DE044F400140AE044F4801466
:1019100001E044F440146978814202D104F5801456
:101920006D1C6D1C2A786E2A1FD00CDC632A31D006
:1019300004DC002A8BD0582A11D1A3E0642A68D095
:10194000692A0CD165E0732A2ED004DC6F2A73D08B
:10195000702A04D19BE0752A6FD0782A6ED0104689
:10196000DDE90F129047761C50E1C4F302500228C3
:1019700006D0032809D0042801CF09D0066045E12C
:1019800001CFF117C0E9006140E101CF06803DE1E0
:1019900006703BE117F8040B8DF8000000208DF86D
:1019A0000100EB46012003E057F804BB4FF0FF3085
:1019B00061074FF0000102D40DE008F101018846F3
:1019C00049450FDA8045F8DB1BF808100029F4D1EF
:1019D00008E008F1010188468142FADB1BF8081093
:1019E0000029F6D1DDE90F23AAEB08008146214644
:1019F00000F036F9304400EB080604E0DDE90F1290
:101A00001BF8010B9047B8F10108F7D22146484670
:101A1000F7E00A21C4F302534FF0000B0891022BA8
:101A200004D001CFC117032B09D00AE0FF1D27F016
:101A30000707F7E8020108E032E01FE020E000B20B
:101A4000C117042B01D140B2C117031E71F100036D
:101A500007DA4FF0000CD0EB0C006CEB01012D23EA
:101A600002E0230504D52B238DF82430012303E065
:101A7000E30701D02023F7E7984658E00A2110E059
:101A800010210EE010204FF0000B08900CE0102108
:101A90004FF0000B44F004044FF00809089103E0F4
:101AA00008214FF0000B0891C4F30253022B04D01D
:101AB00001CF0021032B06D006E0FF1D27F007070A
:101AC000F7E8020103E080B2042B00D1C0B24FF06E
:101AD000000823072BD5702A07D0DDF820C08CF032
:101AE000100C5CEA0B0C05D00EE040238DF824307E
:101AF000012308E050EA010306D030238DF824309A
:101B00008DF8252002239846DDF820C08CF0080CC3
:101B10005CEA0B0C0BD150EA010301D1630706D537
:101B200030238DF824304FF00108A9F10109582A1B
:101B300004D038A20B9208AA0A920BE03AA2F9E765
:101B40005B46089AFEF722FB0B9B9B5C0A9A521E8F
:101B50000A92137050EA0102F2D10A98ADEB00002C
:101B600000F1200B600702D524F4803401E04FF02F
:101B70000109D94502DDA9EB0B0000E0002000EBD4
:101B80000B0141440890AAEB010AE00306D4DDE909
:101B90000F232146504600F063F806444FF0000939
:101BA00008E009A911F80900DDE90F12904709F1D1
:101BB0000109761CC145F4DBE0030CD5DDE90F23F8
:101BC0002146504600F04CF8064404E0DDE90F12CF
:101BD00030209047761C0899481E08900029F5DCB3
:101BE00008E00A980A990078491C0A91DDE90F1269
:101BF0009047761CBBF10001ABF1010BF1DC2146F3
:101C00005046DDE90F2300F019F806446D1C1BE671
:101C100009280100303132333435363738396162C2
:101C20006364656600000000303132333435363786
:101C30003839414243444546000000002DE9F04157
:101C4000044600251E461746880404D405E039469C
:101C50002020B0476D1C641EF9D52846BDE8F081F0
:101C60002DE9F041044600251E469046C80301D5E3
:101C7000302700E02027880404D505E04146384697
:101C8000B0476D1C641EF9D52846BDE8F08101B54A
:101C900081B00020ADF800009DF805008DF800002F
:101CA0009DF804008DF80100BDF800000CBD00BADD
:101CB0007047000013B54FF6FF73012269460248D2
:101CC000FFF73EFA00981CBD780000202DE9F04790
:101CD0000024074626464FF00108DFF8489019E037
:101CE000C4EBC40101EB4105D7F8010005F109017E
:101CF00001446A1D0988104489B20068FEF7CCFBD4
:101D000030B9D7F80100415D08FA01F0304386B2DE
:101D1000641CE4B299F80000A042E1D83046BDE866
:101D2000F08700000000002048B1420707D000F013
:101D30000700C0F10800884203D30020704708293B
:101D4000FBD90120704730B5002248B9501E30BD84
:101D50008B1A0344845C13F8015D85541C70521C7B
:101D6000B2EB510FF4D3002030BD000038B514465B
:101D7000C0B1B9B1B4B10278D20711D00D784A1C04
:101D80001123AB540A78431C521C0A7001210A46E5
:101D900000910021084600F0EFFF00B10120207003
:101DA000002038BD02A0FFF721FD4FF0FF3038BD05
:101DB00067697A44617461506F696E743245766503
:101DC0006E74204572726F72202C20496C6C6567AE
:101DD000616C20506172616D0A00000038B50C46DC
:101DE00078B174B10021217000780090234601225F
:101DF000084600F099FF01212046FFF7A4FF0020CC
:101E000038BD03A0FFF7F2FC4FF0FF3038BD0000F3
:101E100067697A44617461506F696E747332526598
:101E2000706F727444617461204572726F72202CFD
:101E300020496C6C6567616C20506172616D0A00AD
:101E40002DE9F047054600F08BF8264FDFF8988023
:101E500004460026A7F12509A7F1020ABDB100F04A
:101E60007FF839782878814207D020A0FFF7BEFCA0
:101E7000012600F075F8C8F80800A6B121A0FFF708
:101E8000B5FC51462846FFF7A9FF20B108E023A082
:101E9000FFF7ACFC07E001225146042000F0E2FE0F
:101EA000297889F825102748B4FBF0F100FB114090
:101EB000002815D1D8F80C004646A04210D022A028
:101EC000FFF794FC51462846FFF788FF20B901220E
:101ED0005146042000F0C6FE297889F82510F460E8
:101EE000BDE8F087C70100201000002076616C7506
:101EF000656B61696775616E204368616E676564D3
:101F00000A0000006368616E6765642C207265706A
:101F10006F727420646174610A00000067697A431B
:101F20006865636B5265706F7274204572726F7270
:101F3000202C20496C6C6567616C20506172616D6A
:101F40000A000000C0270900496E666F3A2036304B
:101F50003053207265706F727420646174610A007E
:101F600001484068704700000800002010B5134C7D
:101F700094F83A00012819D194F83900022816D2B1
:101F8000FFF7EEFFD4F85310401AC8280ED9FFF718
:101F9000E7FF14F8393F0146D4F81A2008A0FFF7EC
:101FA00025FC00F08BFD2078401C207010BD0348FC
:101FB0001E21BDE810403930FEF7DDB822010020B7
:101FC0005761726E696E673A67697A50726F746FA3
:101FD000636F6C526573656E64446174612025643F
:101FE0002025642025640A003EB5F8B101680091FF
:101FF000406801909DF80400401C8DF80400052005
:10200000FFF745FEADF802000921684600F090FD9B
:102010008DF808000921684601F092FC040003D500
:10202000014605A0FFF7E2FB20463EBD09A0FFF7F1
:10203000DDFB4FF0FF303EBD4552523A20756172D4
:1020400074207772697465206572726F72202564DE
:10205000200A00004552523A2067697A50726F7424
:102060006F636F6C436F6D6D6F6E41636B20646166
:10207000746120697320656D707479200A00000016
:102080003EB50D46040021D0684600F0A5F91220A7
:102090008DF8040060798DF805000620FFF7F7FD44
:1020A000ADF802008DF808500A21684600F040FDA6
:1020B0008DF809000A21684601F042FC040003D5AE
:1020C000014605A0FFF792FB20463EBD09A0FFF7A1
:1020D0008DFB4FF0FF303EBD4552523A2075617284
:1020E00074207772697465206572726F722025643E
:1020F000200A000067697A50726F746F636F6C45D5
:1021000072726F72436D64204572726F72202C2060
:10211000496C6C6567616C20506172616D0A0000EA
:1021200010B59EB004004FD0684600F055F902206B
:102130008DF8040060798DF8050026A02022D0E9F2
:102140000010CDE9021026A0D0E90010CDE904105E
:1021500026A0D0E90010CDE9081027A0D0E9001092
:10216000CDE9061027A10AA8FDF7ECFF20222EA139
:102170000DF15200FDF7E6FF0020CDF84A00CDF842
:102180004E009DF8510040F002008DF851000020F3
:10219000FFF77DFDADF848006F20FFF778FDADF843
:1021A00002007321684600F0C3FC8DF872007321B1
:1021B000684601F0C5FB040003D5014623A0FFF7E4
:1021C00015FB20461EB010BD27A0FFF70FFB4FF0F8
:1021D000FF30F7E73030303030303034000000006E
:1021E00030303030303030320000000030333033A7
:1021F000303030300000000030333031303130309A
:1022000000000000313239643330303263386639CF
:102210003436393638663934666564393564613741
:1022200038303439000000006431396536363763A0
:10223000616664363432346138653231373337663B
:102240006634373363396232000000004552523A37
:102250002075617274207772697465206572726F7F
:1022600072202564200A000067697A50726F746FCB
:10227000636F6C476574446576696365496E666F24
:10228000204572726F72202C20496C6C6567616CFE
:1022900020506172616D0A002DE9F74F82B000266F
:1022A00002988B4635460C46771E78B174B1049877
:1022B00060B1029801F033FAC0B25FEA000808D0BA
:1022C0004FF0FF094FF0020A364F48E036A0FFF703
:1022D0008DFA384605B0BDE8F08F012269460298B4
:1022E00001F053FAD0B37878FF2805D19DF80000AB
:1022F000FF2805D055282BD03878012817D027E0A3
:10230000387858B1B888042822D9A84220D084F857
:10231000009084F80190A7F804A019E084F80090D8
:1023200084F80190A7F804A00120387010E0B88864
:102330009DF800102154401C80B2B880042807D9B1
:102340006088FFF7A4FC001D85B2B888A84208D0B9
:102350009DF800007870B878401CB870761C46452F
:10236000BBDBB98804291AD9A94218D1204600F04C
:10237000DFFBB988214411F8011C81420CD12A46A7
:1023800021465846FDF7DEFE04980580002038708F
:10239000B880B87078709DE76FF001009AE701206F
:1023A00098E700001000002067697A50726F746F20
:1023B000636F6C4765744F6E655061636B65742025
:1023C0004572726F72202C20496C6C6567616C20BD
:1023D000506172616D0A000010B538B100210160D2
:1023E0004160FF2101704170002010BD02A0FFF785
:1023F000FDF94FF0FF3010BD4552523A2067697A1F
:1024000050726F746F636F6C48656164496E697474
:10241000206865616420697320656D707479200A95
:10242000000000002DE9F0438BB0984617465FEAA4
:10243000010906464FF0000525D0B8F1010F2AD05A
:10244000781D84B223462A46394628A0FFF7CEF9E4
:10245000FF208DF800008DF80100200A8DF80200A1
:102460008DF803403079401C8DF8040070798DF8A8
:10247000050000208DF8060008208DF80780B8F1CF
:10248000010F0CD016E023A0FFF7B0F94FF0FF309A
:102490000BB0BDE8F083357AE819801DD1E78DF8DF
:1024A00008502A4606F109010DF10900FDF74AFE20
:1024B00005F109006D4627B128443A464946FDF723
:1024C00041FE211D684600F033FB2919C870211D0B
:1024D000684601F035FA010005D514A0FFF786F92A
:1024E0006FF00100D4E70020D2E700006C656E2099
:1024F0003D202564202C20734469644C656E203D8A
:10250000202564202C646174615F6C656E203D2021
:1025100025640A005B4552525D202064617461208D
:102520004973204E756C6C200A000000756172744E
:10253000207772697465206572726F72202564203D
:102540000A0000002DE9F05F0C000A9D94F800805D
:102550001E4617464FF0FF3B03D016B10DB120B118
:102560004DE028A0FFF742F924E0324813218146CC
:10257000FDF701FE4046DFF8BC804FF0000AA8F1ED
:102580005708012806D04FF0030902280CD005286F
:1025900035D11CE0274A49464D32601CFFF7E6FB67
:1025A000012188F8001028E022494C31881CFFF7EF
:1025B00015FC10B15846BDE8F09F1E48293090F830
:1025C0002300707086F800900220286017E01948F8
:1025D0007A1E611C4038FDF7B5FD40467F1EC8F8E5
:1025E0002D70144910F8573F491C10225A5410F806
:1025F0001F19491CC17700F8389CC5F800A00020BD
:10260000D9E7000067697A50726F746F636F6C4925
:10261000737375656450726F63657373204572726E
:102620006F72202C20496C6C6567616C2050617260
:10263000616D0A00790100202DE9F041050031D0DB
:102640002889FFF724FB8C4F28818C4E38784FF077
:102650000208C0F38001287A06F16B04C0F38002FF
:10266000914241D042074FF000014FEAC07020D59F
:1026700050B196F86A00015596F86A00401C86F839
:102680006A007FA0FFF7B2F8287A80072CD596F869
:102690006A100120085596F86A00401C86F86A0006
:1026A0007FA01FE085A0FFF7A1F84FF0FF30BDE845
:1026B000F08150B196F86A00015596F86A00401C06
:1026C00086F86A006EA0FFF791F8287A80070BD58C
:1026D00096F86A1001F8048096F86A00401C86F8A3
:1026E0006A0082A0FFF782F83878297AC0F3C00325
:1026F000C1F3C00293421BD062F3C30038700807D5
:102700000AD596F86A100320085596F86A00401C0E
:1027100086F86A007CA009E096F86A100420085543
:1027200096F86A00401C86F86A007FA0FFF75EF802
:102730003878297AC0F30013C1F3001293421BD0FA
:1027400062F304103870C8060AD596F86A1005209E
:10275000085596F86A00401C86F86A007AA009E0DD
:1027600096F86A100620085596F86A00401C86F80C
:102770006A007DA0FFF73AF83878297AC0F3401351
:10278000C1F3401293421BD062F3451038708806A3
:102790000AD596F86A100720085596F86A00401C7A
:1027A00086F86A0079A009E096F86A1008200855B2
:1027B00096F86A00401C86F86A007BA0FFF716F8BE
:1027C0007878697AC0F3C003C1F3C00293421BD08A
:1027D00062F3C300787008070AD596F86A100B20D8
:1027E000085596F86A00401C86F86A0076A009E051
:1027F00096F86A100C20085596F86A00401C86F876
:102800006A0078A0FEF7F2FF7878697AC0F30013C7
:10281000C1F3001293421BD062F304107870C80613
:102820000AD596F86A100920085596F86A00401CE7
:1028300086F86A0073A009E096F86A100A20085525
:1028400096F86A00401C86F86A0075A0FEF7CEFF75
:1028500016F86A1F0D2008553078401C3070687AD1
:1028600000F0070186F83C1074A0FEF7BFFF06F8E1
:102870006A8C00201BE700001600002022010020C7
:102880004F6E426F617264696E673A20536F66746F
:102890004150206F7220576562206D6F64650A0099
:1028A0004F6E426F617264696E673A204169724C83
:1028B000696E6B206D6F64650A00000067697A506D
:1028C000726F746F636F6C4D6F64756C6553746178
:1028D000747573204572726F72202C20496C6C6580
:1028E00067616C20506172616D0A00004F6E426F2B
:1028F000617264696E673A2053746174696F6E2007
:102900006D6F64650A000000576946692073746141
:102910007475733A20696E2062696E64696E67200F
:102920006D6F64650A000000576946692073746121
:102930007475733A206F75742062696E64696E678E
:10294000206D6F64650A00005769466920737461E1
:102950007475733A20636F6E6E656374656420727C
:102960006F757465720A0000576946692073746157
:102970007475733A20646973636F6E6E6563746512
:102980006420726F757465720A00000057694669A9
:10299000207374617475733A20636F6E6E6563742F
:1029A0006564206D326D0A00576946692073746151
:1029B0007475733A20646973636F6E6E65637465D2
:1029C00064206D326D0A0000576946692073746196
:1029D0007475733A2061707020636F6E6E656374F6
:1029E0000A00000057694669207374617475733A70
:1029F000206E6F2061707020636F6E6E6563740A65
:102A00000000000057694669207374617475733A59
:102A100020696E2074657374206D6F64650A000010
:102A200057694669207374617475733A206F7574C1
:102A30002074657374206D6F64650A0052535349A6
:102A4000206973202564200A0000000010B510B32F
:102A500014498268134C41F8272FC2684A60028AE1
:102A60000A81807C803C8872B4F8A7006B34FFF741
:102A70000EF9A087606CFFF71AF96064A27C04F17C
:102A800013000E211154A07C401CA074042004F8F3
:102A90006B0C002010BD04A0FEF7A8FE4FF0FF3025
:102AA00010BD0000A20100204552523A204E545061
:102AB00020697320656D707479200A0010B50D4C83
:102AC00094F83A00002813D00BA0FEF78FFEB4F85C
:102AD000511004F13B0000F033FFB4F85110814273
:102AE00002D00DA0FEF782FEFFF73AFAC4F85300B9
:102AF00010BD0000220100205761726E696E673AB6
:102B00002074696D656F75742C20726573656E64D1
:102B10002064617461200A004552523A2072657344
:102B2000656E642064617461206572726F720A0060
:102B300010B503004FF0000003D011B10222491E6E
:102B400005E0002010BD9C5C521C2044C0B28A42AB
:102B5000F9D310BD70B50D46040016D01E210E48E5
:102B6000FDF709FB0C482A462146801CFDF7EAFACE
:102B7000094C0120393CA4F8515084F83A003B3408
:102B8000FFF7EEF9A061002070BD04A0FEF72EFE55
:102B90004FF0FF3070BD00005B0100204552523AFB
:102BA000206461746120697320656D707479200AF6
:102BB0000000000010B50A4958B109790079491C94
:102BC000814204D106481E21801EFDF7D4FA002060
:102BD00010BD04A0FEF70AFE4FF0FF3010BD00004C
:102BE0005D0100204552523A20646174612069738E
:102BF00020656D707479200A0000000070B50D46E4
:102C00004FF0FF3458B10A460146064800F0FCFD7B
:102C1000A84203D004A0FEF7E9FD204670BD09A03C
:102C2000F9E70000160200204552523A2046616939
:102C30006C656420746F2072625772697465200A33
:102C4000000000004552523A2067697A507574447A
:102C50006174612062756620697320656D70747996
:102C6000200A0000FEB516460C0005462CD068462A
:102C7000FFF7B2FB05208DF80400194850F8313FEA
:102C80008DF805305B1C03608DF808500720FEF7B7
:102C9000FEFFADF80200324621460DF10900FDF7B6
:102CA00051FA0B216846FFF743FF8DF80A000B210C
:102CB000684600F045FE04000CD5014609A0FEF769
:102CC00095FD6FF00100FEBD0DA0FEF78FFD4FF0EA
:102CD000FF30FEBD0B216846FFF73CFF2046FEBDDE
:102CE000220100204552523A207561727420777299
:102CF000697465206572726F72202564200A000075
:102D000067697A5265706F727444617461204572AC
:102D1000726F72202C20496C6C6567616C20506169
:102D200072616D0A0000000070B50E46049D0446F5
:102D300053B111463046FEF7F7FF010006F00700D9
:102D400005D0012907D015E04FF0FF3070BD195DA7
:102D5000854029430DE0EEB2C0F10801CE40FF22CC
:102D6000CA4019192A404D78824035434D70195D8B
:102D700011431955002070BD2DE9F0438DB0164662
:102D8000149F8946054600244FF0FF38CBB1C7B1E8
:102D90003A4619466846FDF7D5F9012F05D9394657
:102DA0006846FEF7D0FF401C0BD031464846FEF780
:102DB000BBFF6A46FF2309F0070130B101280BD0A1
:102DC00017E040460DB0BDE8F083545DC6F1080041
:102DD000CC40C3401C400CE05019525D4478C1F116
:102DE0000800361AC6F10806F3401C40CA40844069
:102DF00014432046E6E7000002484168491C416050
:102E000070470000080000202DE9FF470C4606002F
:102E10004FF0000507D034B1DFF8AC804FF4004923
:102E2000DFF8A8A04AE04FF0FF3004B0BDE8F0871B
:102E30007019407812283FD2DFE800F03E3E3E3E57
:102E40003E3E3E3E3E3E3E3E3E2027342309204F3E
:102E5000217820A03970FEF7C9FC3878012808D005
:102E6000012188F800100A4649465046FDF719FB33
:102E700022E0002188F800100A46F5E721781BA01F
:102E800018E01DA0FEF7B2FC16E02079A279617966
:102E9000A3688DE80F00E378A27821881BA0FEF7D5
:102EA000A5FC09E024A0FEF7A1FC28A0FEF79EFCEB
:102EB00021782AA0FEF79AFC6D1CEDB23078A8426A
:102EC000B6D80020B1E7000005000020000801404E
:102ED000090000204576743A204556454E545F6BF4
:102EE00061696775616E202564200A005253534959
:102EF0002025640A000000005452414E53504152B4
:102F0000454E545F44415441200A00005749464908
:102F10005F4E5450203A205B25642D25642D256496
:102F200020253032643A253032643A253032645DEF
:102F30005B25645D200A00004D4F44554C452049F7
:102F40004E464F202E2E2E0A0000000057494620E4
:102F50004D4F44554C45202E2E2E0A006D6F647542
:102F60006C6554797065203A205B25645D200A0009
:102F70002DE9F04F4FF000048FB05FEA000B2546BB
:102F8000ADF83040A24626460D940ED0FEF7EEFF77
:102F9000824F0CAA791C07F1F400FFF77DF907F1C5
:102FA000B30950B1801C72D0B0E07DA0FEF71EFCCA
:102FB0004FF0FF300FB0BDE8F08F83A0FEF716FC96
:102FC000FEF7CEFF0146BDF8302084A0FEF70EFCD0
:102FD00006E03819417886A0FEF708FC641CA4B20C
:102FE000BDF830008442F4D383A0FEF7FFFB78796C
:102FF0007C1CB8460F284FD00ADC0E2816D2DFE81A
:1030000000F0151B151F1515473B15154715473FB4
:10301000182859D006DC112878D014284FD016284B
:1030200004D135E0222857D02A2831D00221204669
:10303000FFF726F871A067E02046FFF771F865E01A
:10304000E279A17973A0FEF7D1FB0DA80090BDF83D
:10305000300008EB0601821B01AB50460931093AEA
:10306000FFF770FA002851D1E37901A920460D9AA3
:10307000FFF7D8F96BA047E02046FEF7B5FF45E023
:103080002046FEF7B1FF2046FFF7D6FA3EE047E0C4
:103090002046FFF78FFD39E02046FEF7A5FF64A02C
:1030A000FEF7A4FBFEF75CFF04464FF41676FEF72E
:1030B00057FF001BB042FAD900F02CFB26E0204657
:1030C000FFF778FD5FA01FE02046FFF773FD204665
:1030D000FFF7BCFC63A017E02046FFF76BFD412221
:1030E00004F108014846FDF72DF82C4898F8902087
:1030F00091300F21115498F89000401C88F89000EE
:10310000052088F800005DA0FEF770FB234C38789E
:10311000573406282AD2DFE800F0290D13212E3675
:10312000781C0121FEF7ACFF5BA0FEF75FFB6FF0A0
:1031300001003FE7194901223D70A431204606E015
:1031400016493D70A631A1F13C0001220446FFF76B
:103150005BFE13212046FDF70EF807E00F493D7096
:10316000D7F82D2017312046FFF74EFE5846FEF7C0
:1031700067FE00201EE709490C22A731A1F12A00B1
:103180003D700446E3E705483D70903041224946D2
:103190000446FFF739FE4121DCE700002201002050
:1031A00047697A7769747348616E646C652045720B
:1031B000726F72202C20496C6C6567616C205061C5
:1031C00072616D0A00000000476574204F6E652033
:1031D0005061636B6574210A0000000057694669FD
:1031E000324D43555B2534643A2534645D3A200002
:1031F00025303278200000000A0000004552523A83
:1032000020636D6420636F6465206572726F722144
:103210000A000000666C6167202578202578200A66
:103220000000000041636B44617461203A200A0091
:103230007265706F72743A4D4355207265626F6F9C
:1032400074210A0041636B2050524F445543544946
:103250004F4E5F4D4F444520737563636573732014
:103260000A00000041636B204745545F55545420C9
:1032700073756363657373200A00000041636B20FC
:103280004745545F4D6F64756C6520737563636566
:103290007373200A000000004552523A20636865AB
:1032A000636B2073756D206572726F72210A000066
:1032B0000A4810B52C21016000F11001C16000F036
:1032C0005BFA48B106A0FEF791FA0448F421BDE884
:1032D0001040F438FCF74FBF06A0F4E716020020B8
:1032E0007262437265617465204661696C64200A8C
:1032F000000000007262437265617465205375635B
:1033000063657373200A0000F0B506460024354D4E
:10331000092787B0062E5FD2DFE806F0030D0D34D3
:1033200054596846FFF758F80B202FE001462EA0AD
:10333000FEF75CFA43E003A8FFF74EF88DF8107033
:1033400055F8310F8DF81100401C28608DF814607D
:103350000620FEF79CFCADF80E000A2103A8FFF73B
:10336000E7FB8DF815000A2103A800F0E9FA040034
:1033700003D501461CA0FEF739FA0A2103A8FFF77E
:10338000E9FB2CE06846FFF727F813208DF80400CE
:1033900055F8310F8DF80500401C28600520FEF718
:1033A00076FCADF8020009216846FFF7C1FB8DF8F5
:1033B00008000921684600F0C3FA0400B6D40921C8
:1033C0006846DCE76846FFF707F81520DEE7684641
:1033D000FFF702F82920D9E70AA0FEF707FA07B09D
:1033E0002046F0BD220100204552523A20756172FC
:1033F00074207772697465206572726F722025641B
:10340000200A00004552523A204366674D6F6465BA
:10341000206572726F72210A0000000010B504A0CE
:10342000FEF7E4F9BDE810400020FFF76DBF000093
:103430004B455931205052455353204C4F4E472055
:103440002C576966692052657365740A0000000094
:1034500010B504A0FEF7CAF9BDE810400320FFF73D
:1034600053BF00004B455931205052455353202C37
:1034700050726F64756374696F6E204D6F64650A76
:103480000000000010B506A0FEF7B0F90122D1033C
:103490000B48FDF706F8BDE810400220FFF734BFE7
:1034A0004B455932205052455353204C4F4E4720E4
:1034B0002C4169724C696E6B206D6F64650A000067
:1034C0000008014010B504A0FEF790F9BDE81040D7
:1034D0000120FFF719BF00004B45593220505245DB
:1034E0005353202C536F6674204150206D6F6465D8
:1034F0000A0000002DE9F0410646002400F0CCF956
:10350000050032D0A8044FF0010712D414E0D6F819
:103510000110C4EBC40000EB40000B5C07FA03F29F
:103520002A4204D00D300844006800B18047641C72
:10353000E4B23078A042EAD8280416D5002411E07D
:10354000D6F80110C4EBC40000EB40000B5C07FA96
:1035500003F22A4204D011300844006800B18047C9
:10356000641CE4B23078A042EAD8BDE8F0810000E3
:1035700000B589B015491648CDE900014FF48063C4
:10358000144A002102A800F031F8152202A91248BD
:10359000FCF7D8FD11491248CDE900014FF48073C2
:1035A000104A002102A800F021F80B48152202A9B8
:1035B0001530FCF7C7FD0C490748C1F8010009B0F8
:1035C00008465DF804EB00F031B800001D34000837
:1035D00051340008000C0140F80000208534000838
:1035E000C5340008000801400000002030B587B055
:1035F000DDE90A45CDF80110CDF805200A4ACDF8DD
:103600000930D178491CD1708DF80010CDF81150D7
:10361000CDF80D401178491C117015226946FCF750
:1036200091FD07B030BD000020000020002806D02A
:103630000349097801700C2901D90C2101707047E8
:1036400020000020FCF740FFFDF783FEFDF7F6FDAC
:10365000FDF73AFE26482549002401604FF4E13188
:10366000C0E901140C25C460C0E904458461C4614B
:10367000FDF7B0FC00B1FEE71D481E494030016077
:103680004FF41651C0E90114C460C0E904458461D7
:10369000C461FDF79FFC00B1FEE7002201211C2060
:1036A000FCF786FF1C20FCF777FF0022114626203E
:1036B000FCF77EFF2620FCF76FFF00F031F900F0E9
:1036C00035F900F0A7F9FFF7F3FDFFF751FF0AA066
:1036D000FEF78CF800224FF400410C48FCF7E1FEA5
:1036E00000F08AF90A48FFF743FCF9E70038014087
:1036F00078000020004400404D435520496E697415
:103700002053756363657373200A0000000801404D
:1037100009000020012080F31388FCF77BBF00B56F
:10372000010006D04A688868824205D14FF0000047
:1037300000BD4FF0FF3000BD02D2A0EB020000BD83
:10374000084600F013F84A688968511A401A00BD0B
:1037500000B5010007D000F009F803460846FFF75E
:10376000DEFF181A00BD4FF0FF3000BD08B1006841
:1037700070474FF0FF30704720B1C16841608160F1
:10378000002070474FF0FF3070472DE9F0410400F2
:1037900015460F464FF0FF3020D0002F1ED0606836
:1037A000A1688842204609D2FFF7B9FFA84203D892
:1037B0002046FFF7B4FF0546616807E0FFF7D6FF34
:1037C0006168E2688A1A801AA84209D92A463846EE
:1037D000FCF7B8FC6068284460602846BDE8F081CA
:1037E0002046FFF7C3FF6168E2688A1A861A3246EC
:1037F0003846FCF7A7FCE0686060AA1BB9192046B0
:10380000FFF7C3FF3044E9E72DE9F04115460F46C5
:10381000040008D03FB1FFF79BFFA84206D86FF025
:103820000100BDE8F0814FF0FF30FAE76168A06861
:10383000814229D82046FFF799FF0146A068E26837
:10384000821A8E1AB54212D82A463946FCF77AFCFB
:10385000A0682844A0602046FFF788FF0146E06882
:10386000A2680144914200D1A0602846D9E73246BF
:103870003946FCF767FCE068A060AA1BB91920462E
:10388000FFF7C2FF3044CCE72A463946FCF75AFC22
:10389000A0682844E8E7000070B5204C0126002508
:1038A0002179491CC9B221711E2902D32571667084
:1038B00002E0617801292ED16570FEF707FAA17840
:1038C00031B1012908D002290ED0032923D11FE0EC
:1038D00008B32081A6701EE02189884202D102200F
:1038E000A07018E0A57016E02189884204D0A57068
:1038F000E58041F4005070BDE188491C89B2E18047
:10390000642908D3E5800321A17040F4004070BD14
:1039100021898842E6D1002070BD000020000020EF
:103920000148FDF783B90000380000200122024958
:103930000248FDF7C3BB000008000020B8000020CB
:10394000F8B5050021A00E4600684FF00004009075
:1039500001D01F4F1AE04FF0FF30F8BD29190122A6
:103960001B48FDF74AFC97F839002028FBD1022CB0
:103970000BD3285DFF2808D1012269461448FDF7C2
:103980003CFC97F839002028FBD1641CB442E5D3F5
:1039900010483246416810A0FDF728FF00240DE0D2
:1039A000295D12A0FDF722FF022C06D3285DFF2817
:1039B00003D155210DA0FDF719FF641CB442EFD3CC
:1039C0000CA0FDF713FF3046F8BD000055000000C5
:1039D000B8000020080000204D4355325769466961
:1039E0005B2534643A2534645D3A20002530327812
:1039F000200000000A00000004480178044811B1CA
:103A00000021017070470121FBE700000500002044
:103A10000900002001480021417070470800002083
:103A2000000000000000000001020304060708096E
:103A30000000000001020304583A000800000020C2
:103A4000380000000C180008903A000838000020E8
:103A5000202200001C1800080000000000000000E8
:103A60000000000000000000000000000000000056
:103A70000000000000000000000000FF0000000047
:103A80000000000000A24A04000000000000000046
:04000005080000ED02
:00000001FF
