:020000040800F2
:10000000A0220020010100083B1A0008571900082F
:10001000391A000851090008051F000800000000F7
:100020000000000000000000000000005F1A00084F
:1000300053090008000000005D1A0008611A00085A
:100040001B0100081B0100081B0100081B01000820
:100050001B0100081B0100081B0100081B01000810
:100060001B0100081B0100081B0100081B01000800
:100070001B0100081B0100081B0100081B010008F0
:100080001B0100081B0100081B0100081B010008E0
:100090001B0100081B0100081B0100081B010008D0
:1000A0001B0100081B0100081B0100081B010008C0
:1000B000211B00081B0100081B0100081B01000890
:1000C0001B0100081B0100081B0100081B010008A0
:1000D0001B0100081B010008F91E00081B01000895
:1000E0001B0100081B0100081B010008DFF80CD0F1
:1000F00000F01CFC00480047F5440008A022002046
:100100000648804706480047FEE7FEE7FEE7FEE7B1
:10011000FEE7FEE7FEE7FEE7FEE7FEE7D91A000886
:10012000ED000008202A04DB203A21FA02F0002129
:10013000704721FA02F3D040C2F1200291400843F7
:100140001946704740EA01039B0703D009E008C93C
:10015000121F08C0042AFAD203E011F8013B00F88C
:10016000013B521EF9D27047D2B201E000F8012BD8
:10017000491EFBD270470022F6E710B513460A4627
:1001800004461946FFF7F0FF204610BDF0B480EAA0
:100190000102D40F4200B2EB410F02D202460846E0
:1001A00011464A0042D0C30DDDB2C1F3C752AD1AA9
:1001B000202D35DAC1F3160141F4000204B1524298
:1001C000C5F1200602FA06F12A411044B3EBD05FD4
:1001D00023D0C4B1012DA0EBC35009DCF0BC4FF01B
:1001E000004202EAC352DBB200F5000000F001BA9F
:1001F000400000F1807000EBC350A0F1807040EA35
:10020000D170490009E0490841EAC071A0EBC35030
:1002100000F50000400800EBC350F0BC00F0E0B96E
:100220006142012202EB4101001BF6E7F0BC70477E
:1002300081F00041AAE780F00040A7E780EA0102D0
:1002400010B502F00043400022D04A001FD0010E3A
:1002500001EB1261C0F35600C2F3560240F40000F5
:1002600042F40002A0FB022000047F39140400D0F5
:10027000401C50EA124001D44000491EC2B20C0694
:1002800004EBD010401C4008802A02D003E000207C
:1002900010BD20F00100002900DA0020184310BD35
:1002A00030B480EA010202F0004530F0004221F053
:1002B000004013D090B1C30DD40DC2F31601C0F3AA
:1002C0001600E41A41F4000140F400027D3491422A
:1002D00001D3641C00E04900002C02DA30BC00208D
:1002E00070474FF400000023914201D3891A034361
:1002F00040084FEA4101F7D151B1914202D14FF08C
:10030000004105E002D24FF0010101E06FF0010170
:1003100003EBC450284430BC00F062B92DE9FE4F15
:10032000804681EA0300C00F0C46009021F0004196
:1003300023F00045B8EB0200A94105D24046214612
:1003400090461C460B46024623F00040104347D01F
:10035000270DC7F30A00C3F30A510290401A019017
:1003600040286BDAC3F3130040F4801B00989246D8
:1003700020B10023D2EB030A63EB0B0B0198594623
:10038000C0F14002504600F00AF906460D465046BC
:100390005946019A00F012F910EB0800614100245F
:1003A00087EA115284EAE7731A4340D0009A62B395
:1003B000019A012A4FEA075215DC001B61EB02018A
:1003C0004FF0004202EA0752CDE90042001C41F51D
:1003D000801132462B4600F049F903B0BDE8F08F9A
:1003E00040462146F9E7001B61EB0201001C41F584
:1003F000801300185B412018A2F5001747EB03019A
:1004000040EAD570B6196D4111E06D084FEA360625
:1004100045EAC0754FEA0752001B61EB0201001C60
:1004200041F5801149084FEA300000195141324628
:100430002B4603B0BDE8F04F00F009B90098012247
:1004400040000023D0EB020263EBE07300982146EA
:100450004FEAE074B8EB000061EB0401E9E783F0D8
:1004600000435BE781F0004158E7962300221146E4
:1004700000F0BFB820F00040C10DC0F3160040F4FA
:1004800000007F2901DA00207047962903DCC1F1C2
:100490009601C840704796398840704700F0004286
:1004A00030F000400AD0C10D01F56071C0F31600B4
:1004B00042EA0151C208400711437047002001463B
:1004C000704701F0004330B421F0004150EA0102CE
:1004D00006D00A0DA2F56072C1F31301002A02DCF6
:1004E00030BC00207047440F44EAC104C100E0184A
:1004F00030BC00EBC25000F073B80000002801DBF4
:10050000C0F10040002901DBC1F100418142704788
:1005100030B50B46014600202022012409E021FAD3
:1005200002F59D4205D303FA02F5491B04FA02F5D0
:100530002844151EA2F10102F1DC30BD2DE9F05F67
:100540000546002092469B46884606468146402442
:100550001BE02846414647462246FFF7E3FD534647
:100560005A46C01A914110D311461846224600F04F
:1005700016F82D1A67EB01084F462246012000218C
:1005800000F00DF817EB00094E41201EA4F1010404
:10059000DFDC484631462A464346BDE8F09F202A24
:1005A00004DB203A00FA02F1002070479140C2F1CA
:1005B000200320FA03F3194390407047202A06DBFA
:1005C000CB17203A41FA02F043EAE07306E041FA21
:1005D00002F3D040C2F1200291400843194670470F
:1005E0000029A8BF7047401C490008BF20F0010047
:1005F000704710B4B0FA80FC00FA0CF050EA010425
:1006000004BF10BC704749B1CCF1200421FA04F4B6
:1006100011FA0CF118BF012121430843A3EB0C018F
:10062000CB1D4FEA00614FEA102042BF002010BCF2
:10063000704700EBC35010440029A4BF10BC7047A2
:10064000401C490008BF20F0010010BC704710B5E5
:10065000141E73F1000408DA401C41F100019218E5
:100660005B411A4301D120F0010010BD2DE9F04D8E
:1006700092469B4611B1B1FA81F202E0B0FA80F2E3
:1006800020329046FFF78BFF04460F4640EA0A00EF
:1006900041EA0B0153465A46084313D0114653EA28
:1006A000010019D0C8F140025046FFF73BFD054656
:1006B0000E46504659464246FFF771FF084305D0A3
:1006C000012004E020463946BDE8F08D00200543B6
:1006D00046EAE0762C4337430A986305E40AA0EB28
:1006E00008000022FD0A44EA47540A3002D50020DF
:1006F0000146E9E7010510196941DDE908450019DE
:100700006941BDE8F04DA2E72DE9FE4F81EA0304FF
:1007100004F0004421F0004100944FF0000B23F05E
:10072000004350EA01045ED052EA03045BD0C3F3F5
:100730000A54C1F30A552C44A4F2F3340194A0FBEB
:100740000254C1F3130141F48011C3F3130343F4C2
:10075000801301FB024400FB034E840A970A44EA1B
:10076000815447EA8357A4FB076802958D0A05FB6D
:1007700007854FEA932C04FB0C542705029D4FEA92
:10078000065847EA1637B5EB08056EEB070C870EDF
:10079000920E47EA811742EA8312A7FB0201B6EBE9
:1007A0000B0164EB00042B0D43EA0C335E1844EBA1
:1007B0001C50DA465146E7FB0201C5F313044FEA29
:1007C0000B3343EA14534FEA0432019C43EA060315
:1007D000A4F10C040294009CCDE900B4FFF746FF9D
:1007E00003B0BDE8F08F00200146F9E72DE9F04D98
:1007F00081EA030404F0004B21F0004514464FF059
:10080000000A23F0004150EA050220D054EA010218
:100810001DD0C5F30A570246C5F31303C1F31300F5
:10082000C1F30A5640F4801543F48013A7EB060881
:10083000101BD64608F2FD3873EB050002D308F111
:10084000010801E092185B41B8F1000F03DA0020C3
:100850000146BDE8F08D00204FF480110646844625
:100860000EE0171B73EB050705D3121B63EB0503A3
:1008700006434CEA010C49084FEA300092185B41EC
:1008800050EA0107EDD152EA030012D082EA0400D7
:1008900083EA0501084305D0101BAB4106D20122B3
:1008A000002306E000224FF0004302E06FF0010257
:1008B00053101AEB06004CEB085110EB0A0041EB09
:1008C0000B01BDE8F04DFFF7C2BEC1F30A52C1F300
:1008D000130140F2FF3341F480119A4202DA002002
:1008E0000146704740F233439A42A2F2334202DC9F
:1008F0005242FFF717BCFFF752BE000030B5041E8E
:1009000071F1000404DB4FF00044404264EB01014C
:10091000141E73F1000405DB1C464FF000435242E5
:1009200063EB0403994208BF904230BD064C074D6B
:1009300006E0E06840F0010394E8070098471034AF
:10094000AC42F6D3FFF7D6FB24490008444900081F
:10095000FEE7704710B590F821100024022903D05B
:100960000421816301243DE001680A6822F00E023F
:100970000A6001680A6822F001020A601A4A0168E6
:10098000914201D1012121E0174A1432914201D153
:1009900010211BE0144A2832914201D1891515E03B
:1009A000114A3C32914201D189140FE00E4A503273
:1009B000914202D14FF4803108E00B4A64329142F7
:1009C00002D14FF4801101E04FF08071064A083ADD
:1009D0005160012180F82110002180F82010416B26
:1009E00001B18847204610BD080002402DE9F84FAC
:1009F000DFF8A091002309F1040A0AF1040B1C4658
:100A00004FF00F080BF1040E01270A68A7403A4087
:100A1000BA4272D1DFF880C14D68A5EB0C0665457E
:100A20002BD00DDC032D34D005DC35B3012D19D0CE
:100A3000022D2FD11BE0112D16D0122D2AD119E035
:100A4000B6F5881F19D006DCB6F5803F15D0B6F58F
:100A5000801F1FD111E0B6F5001F0ED0B6F5041FA0
:100A600018D10AE0CB6815E0CB681B1D12E0CB68FB
:100A700008330FE0CB680C330CE08B682BB1012BF3
:100A80004FF0080303D0476104E0042302E007614C
:100A900000E00023FF2A01D8064601E000F1040629
:100AA0004FEA840501D9A5F12005376808FA05FC4D
:100AB00027EA0C0703FA05F547EA050737604D6892
:100AC000ED0060D5354DAE6946F00106AE61AD6909
:100AD00024F0030605F001050095314D7719BE6835
:100AE000A5072D0F08FA05FC26EA0C06DFF8B4C0AE
:100AF000604503D14FF0000C17E044E0DFF8A8C0D8
:100B0000604502D14FF0010C0FE0DFF8A0C0604556
:100B100002D14FF0020C08E0DFF894C0604502D12A
:100B20004FF0030C01E04FF0040C0CFA05FC4CEA0A
:100B3000060CC7F808C04D68D9F80060ED034D46B3
:100B400001D5164300E096432E604D68DAF8006048
:100B5000AD03554601D5164300E096432E604D681F
:100B6000DBF80060ED025D4601D5164300E09643D8
:100B70002E604D68DEF80060AD02754601D5164363
:100B800000E096432E60641C102CFFF43DAFBDE8DE
:100B9000F88F000000040140000011100010024016
:100BA0000000014000080140000C0140001001401D
:100BB000001401408068084000D0012070470AB14D
:100BC000016170470904FBE70148006870470000B5
:100BD0003C00002002480168491C01607047000089
:100BE0003C000020074810B5016841F01001016089
:100BF000032000F08BF8002000F006F800F018F851
:100C0000002010BD0020024010B5044607484FF4F4
:100C10007A710068B0FBF1F000F027FB002221465A
:100C2000501E00F053F8002010BD000038000020D6
:100C30001E4808B5816941F001018161806900F0B9
:100C400001000090032000F061F8002211466FF0CF
:100C50000B0000F03BF8002211466FF00A0000F094
:100C600035F8002211466FF0090000F02FF800223D
:100C70001146501F00F02AF800221146101F00F004
:100C800025F800221146901E00F020F8002211469F
:100C9000501E00F01BF80648416821F0E0614160F9
:100CA000416841F00071416008BD00000010024041
:100CB0000000014000F01F02012191404009800026
:100CC00000F1E020C0F8001170470000F0B40E4BB6
:100CD0001B68C3F30223C3F10704042C00D90424C6
:100CE0001D1D072D01D2002300E0DB1E012606FAA0
:100CF00004F56D1E0D409D409E40761E164045EA4F
:100D00000601F0BC00F09ABE0CED00E0064A00F0CF
:100D1000070110684FF6FF03184040EA012003491D
:100D200008431060704700000CED00E00000FA0579
:100D3000BFF34F8F05480168054A01F4E061114394
:100D40000160BFF34F8F00BFFDE700000CED00E036
:100D50000400FA052DE9F047DFF8348104460E4619
:100D6000D8F8000000F00700B0420CD2D8F800100C
:100D700021F007013143C8F80010D8F8000000F056
:100D80000700B04260D12078424F800705D57868CF
:100D9000A16820F0F000084378602078C00742D0B6
:100DA0006068012816D03968022816D08907002902
:100DB0004ADA796821F0030101437960FFF704FF03
:100DC0000546606841F2883101280ED00228894624
:100DD00017D024E039688903E9E78901E7E7FFF7DD
:100DE000F3FE411B494501D916E089467868C0F3F6
:100DF00081000128F3D116E0FFF7E6FE411B4945CB
:100E00000AD87868C0F381000228F5D10BE0FFF71B
:100E1000DBFE411B494502D90320BDE8F087786815
:100E200010F00C0FF3D1D8F80010404601F0070184
:100E3000B1420BD9016821F007013143016000681C
:100E400000F00700B04201D00120E6E7207840071B
:100E500005D57868E16820F4E06008437860207880
:100E6000000706D57868216920F4605040EAC10087
:100E7000786000F03BF87968074AC1F30311515CD0
:100E8000C840064908600020FFF7BEFE0020C4E706
:100E900000200240001002400C49000838000020E9
:100EA00001480068704700003800002004480549E8
:100EB00000684968044AC1F30221515CC840704788
:100EC00038000020001002401C4900080448054971
:100ED00000684968044AC1F3C221515CC8407047A8
:100EE00038000020001002401C49000810B512A074
:100EF00085B00FC88DE80F0013A0144B0068049054
:100F00005968134801F00C02042A0FD0082A0DD1A9
:100F1000C1F38344C9031DF8042009D5596804AB03
:100F2000C1F34041595CB0FBF1F0504305B010BD36
:100F300008485043FAE700000203040506070809C1
:100F40000A0B0C0D0E0F10100102000000100240E1
:100F500000127A0000093D002DE9F84F04460078A0
:100F6000B64DC00747D06868C0F38100012807D09C
:100F70006868C0F38100022809D16868C00306D5FB
:100F80002868800337D5606800286ED033E0606839
:100F9000B0F5803F0BD010B1B0F5A02F11D028686C
:100FA00020F480302860286820F4802002E028683F
:100FB00040F480302860606888B1FFF705FE06467F
:100FC00009E0286840F480202860F0E7FFF7FCFD86
:100FD000801B642873D828688003F7D50BE0FFF7DF
:100FE000F3FD064604E0FFF7EFFD801B6428F1D80F
:100FF00028688003F7D42078DFF8448280074FF018
:10100000010A4FF0000939D5686810F00C0F07D0BD
:101010006868C0F38100022809D16868C00306D45B
:101020002868800713D5206901281ED10FE02069A8
:10103000A8B1C8F800A0FFF7C7FD064604E0FFF717
:10104000C3FD801B0228C5D828688007F7D528680B
:10105000616920F0F80040EAC10028600EE0C8F89D
:101060000090FFF7B1FD064605E0E5E0FFF7ACFDB7
:10107000801B022823D828688007F7D4207800072F
:101080002CD57049A069D8B1C1F800A0FFF79CFD2C
:10109000064604E0FFF798FD801B02280FD8686A17
:1010A0008007F7D568484FF4FA510068B0FBF1F0BB
:1010B000009000BF0098411E0091FAD20EE07CE043
:1010C000C1F80090FFF780FD064604E0FFF77CFDC5
:1010D000801B022871D8686A8007F7D420784007FF
:1010E0005BD5E8690027C00008D4E86940F080506B
:1010F000E861E869012700F08050009053480168DA
:10110000C90511D40168834641F480710160FFF77D
:101110005BFD064604E0FFF757FD801B64284CD8B2
:10112000DBF80000C005F6D5E06801280AD008B158
:10113000052813D0286A20F001002862286A20F0D0
:10114000040002E0286A40F001002862E06841F2F1
:10115000883B88B1FFF738FD064609E0286A40F071
:1011600004002862EEE7FFF72FFD811B59455BD88D
:10117000286A8007F7D50BE0FFF726FD064604E056
:10118000FFF722FD811B59454ED8286A8007F7D406
:101190001FB1E86920F08050E861E069A8B3696890
:1011A000C1F38101022947D00228484606D0C8F879
:1011B0006000FFF709FD044639E035E04746C8F80E
:1011C0006000FFF701FD064604E0FFF7FDFC801B11
:1011D000022829D828688001F7D4206AB0F5803F1A
:1011E00005D16868A16820F4003008436860D4E93C
:1011F00008010843696821F4741108436860C7F85E
:1012000060A0FFF7E1FC044605E013E0FFF7DCFC1B
:10121000001B022808D828688001F7D50AE0FFF7EC
:10122000D3FC001B022802D90320BDE8F88F2868F0
:101230008001F4D40020F8E70120F6E70010024016
:10124000000042428004424238000020007000400A
:101250004FF0E0210428086903D020F00400086161
:10126000704740F00400FAE7704710B5401EB0F137
:10127000807F01D3012010BD4FF0E02460610F2179
:10128000601700F0DBFB0020A06107202061002038
:1012900010BD10B5FFF7E8FF10BD7047704730B5BF
:1012A00090F83C20012A20D0012380F83C30022213
:1012B00080F83D200268546824F07004546002688D
:1012C00054680D682C4354600268946824F08004CC
:1012D00094600268946849680C43946080F83D30DB
:1012E000002180F83C10084630BD022030BD10B50A
:1012F000040003D094F83D0010B107E0012010BDB8
:10130000002084F83C00204600F00CF8022084F80D
:101310003D00211D206800F009FC012084F83D00FB
:10132000002010BD08B50068B0F1804F08D1054815
:10133000C16941F00101C161C06900F00100009084
:1013400008BD0000001002400168CA6842F00102B6
:10135000CA600068016841F0010101600020704727
:1013600070B5044690F83C00012817D0012584F898
:101370003C50022084F83D002068826822F0770209
:1013800022F47F4282600868502836D00DDC202885
:1013900058D005DC80B3102840D150E0022070BD49
:1013A000302852D0402839D13EE060282DD0702816
:1013B0000BD0B0F5805F03D0B0F5005F2ED110E008
:1013C0002068816821F0070109E0CB68D1E901219B
:1013D000206800F0E1FB2068816841F077018160BE
:1013E0001CE0CB68D1E90121206800F0D5FB206822
:1013F000816841F48041F2E71EE0CA6849682068CC
:1014000000F0DCFB5021206806E0CA6849682068CB
:1014100000F0E5FB6021206800F0C8FB84F83D5037
:10142000002084F83C0070BDCA684968206800F05C
:10143000C5FB40212068EFE700212068ECE7102180
:101440002068E9E720212068E6E730212068E3E70B
:10145000704770B50446006801694FF00005C94344
:10146000890715D4C168C943890711D4E91E0161F0
:1014700001202077206880698007204602D0FFF78E
:10148000E7FF04E000F098F8204600F096F8257792
:1014900020680169C943490717D4C168C94349078E
:1014A00013D46FF004010161022020772068806965
:1014B00010F4407F204602D0FFF7CAFF04E000F09E
:1014C0007BF8204600F079F8257720680169C94348
:1014D000090716D4C168C943090712D46FF008017F
:1014E0000161042020772068C0698007204602D06F
:1014F000FFF7AEFF04E000F05FF8204600F05DF873
:10150000257720680169C943C90617D4C168C94352
:10151000C90613D46FF010010161082020772068FC
:10152000C06910F4407F204602D0FFF791FF04E02D
:1015300000F042F8204600F040F825772068016965
:10154000C943C90708D1C168C943C90704D1891E65
:101550000161204600F032F820680169C94309069C
:1015600009D4C168C943090605D46FF0800101613F
:101570002046FFF792FE20680169C943490609D455
:10158000C168C943490605D46FF040010161204696
:1015900000F024F820680169C94389060BD4C168AA
:1015A000C943890607D46FF0200101612046BDE8D8
:1015B0007040FFF773BE70BD70477047054910B5A6
:1015C000884206D1044802F0EDFEBDE8104002F06A
:1015D000C9BA10BD480000200000002070477047C5
:1015E00070B5026804461068D168536910F00F0F97
:1015F00050D003F0010501F4907635435DD0C20769
:1016000005D0CA0503D5E26B42F00102E26342074E
:1016100005D5DA0703D0E26B42F00202E2638207EB
:1016200005D5DA0703D0E26B42F00402E263020759
:1016300005D5DA0703D0E26B42F00802E263E26B01
:10164000002A33D0800604D5880602D5204600F053
:10165000EEFA20684069E16BC0F38010090700D4FE
:1016600028B3204600F0D5FA2068416949061AD50A
:10167000416921F040014161606BA0B11B494163A8
:10168000606BFFF767F9002810D0606B416BBDE815
:1016900070400847830610D58B060ED52046BDE85E
:1016A000704000F0C4BA2046FFF799FF70BD204695
:1016B000FFF795FF0020E06370BD030606D50B061B
:1016C00004D52046BDE8704000F0B4BB4006F3D519
:1016D0004806F1D5D168204621F04001D160202193
:1016E00084F8391000F036F970BD0000031C0008C2
:1016F00070B5040004D094F83900002510B106E05C
:10170000012070BD84F83850204600F023F82420D2
:1017100084F839002068C16821F40051C160204676
:1017200000F0D0FA2068016921F49041016120683D
:10173000416921F02A0141612068C16841F40051EA
:10174000C160E563202084F8390084F83A00002065
:1017500070BD000070B51C4E016800241B4A0220B9
:1017600003231B4D86B0B14211D1916941F48041F0
:1017700091619169039301F4804104910102CDE9E3
:10178000001069462846FFF731F9281513E0114E7D
:10179000B14217D1D16941F40031D161D1690393CC
:1017A00001F4003104910421CDE900106946284676
:1017B000FFF71CF90820CDE9000469462846029489
:1017C000FFF714F906B070BD003801400010024068
:1017D000000801400044004090F83A30202B22D10C
:1017E000F9B1F2B190F83830012B1CD081628285BA
:1017F000C2850021C163222280F83A2080F8381087
:101800000168CA6842F48072CA6001684A6942F09D
:1018100001024A610068C16841F02001C1600020F6
:1018200070470120704702207047000010B5006823
:10183000074988420AD10121064802F0F3F8BDE8C1
:101840001040012203490448FFF7C6BF10BD000045
:101850000044004014000020C80000202DE9F84397
:10186000044690F839001E4617460D46202850D1F0
:10187000A5B19FB194F8380001284AD0012084F81E
:1018800038004FF00008C4F83C80212084F839006B
:10189000FFF79AF9A7848146E78426E00120BDE896
:1018A000F883E08C401EE084A0684B46B0F5805F72
:1018B0004FF000024FF080012046009603D000F068
:1018C000EAFAE8B90DE000F0E6FAC8B9288821681C
:1018D000C0F308004860206908B16D1C05E0AD1C2C
:1018E00003E0216815F8010B4860E08C0028D8D18E
:1018F0004B46002240212046009600F0CCFA08B169
:101900000320CCE7202084F8390084F838800020B8
:10191000C5E70220C3E790F83930202B18D1A9B1D0
:10192000A2B190F83830012B12D001628284C284B7
:101930000021C163212280F8392080F83810006826
:10194000C16841F08001C1600020704701207047EC
:10195000022070477047FEE770B51F4886B0816966
:1019600041F020018161816901F0200104918169C8
:1019700041F004018161816901F0040104918169F0
:1019800041F0080181618069144E00F008004FF4B5
:1019900000450490002229463046FFF710F9002444
:1019A0006811CDE9000469460D480294FFF71EF85E
:1019B000E811CDE90004694630460294FFF716F8B5
:1019C0000120CDE900500220039069463046FFF720
:1019D0000DF806B070BD0000001002400008014084
:1019E000000C014010B5134886B04FF080410160F3
:1019F00041F61F410024C0E901140921C0E9031484
:101A00008461FFF774FC00B1FEE74FF48050009052
:101A100069460848FFF7A4FC00B1FEE7049404A956
:101A200004480594FFF73BFC002800D0FEE706B011
:101A300010BD000048000020FEE770470907090EAE
:101A4000002806DA00F00F0000F1E02080F8141DF5
:101A5000704700F1E02080F800147047704770472D
:101A600010B5FFF7B7F8BDE81040FFF712BC30B56E
:101A70008FB001210804CDE9001000240294022552
:101A80000491CDE907504FF4E01009906846FFF744
:101A900063FA00B1FEE70F20CDE90A054FF480603C
:101AA000CDE90C4002210AA80E94FFF753F900B1CA
:101AB000FEE7FFF7F5F94FF47A71B0FBF1F0FFF7AD
:101AC000D4FB0420FFF7C4FB00221146501EFFF791
:101AD000FDF80FB030BD00000D48016841F0010174
:101AE000016041680B4A1140416001680A4A114097
:101AF0000160016821F480210160416821F4FE0148
:101B000041604FF41F0181600449C00308607047C1
:101B1000001002400000FFF8FFFFF6FE08ED00E0B5
:101B20000148FFF796BC000048000020F0B50268AD
:101B3000164C174D174E4FF08047A04205D0B842C3
:101B400003D0A84201D0B04203D122F070034A680A
:101B50001A43A04205D0B84203D0A84201D0B042F7
:101B600003D122F44073CA681A434B6922F0800201
:101B7000134303608A68C2620A688262A04201D18C
:101B80000969016301214161F0BD0000002C0140A1
:101B9000000400400008004010B5846842EA0322B7
:101BA00024F47F440A432243826010BD826822F0FD
:101BB00070020A4342F007018160704710B5046A61
:101BC000036A23F001030362836923F0F00343EA0D
:101BD000021324F00A020A438361026210BD10B5A9
:101BE000036A23F0100303628469036A24F47044D7
:101BF00044EA023223F0A00343EA01118261016248
:101C000010BD10B5406A0021C185C184FFF7E7FC13
:101C100010BD0168CA6822F49072CA6001684A69FE
:101C200022F001024A61202180F83A10704710B575
:101C300090F83A10222901D0022010BD8168B1F538
:101C4000805F11D00169002901681FD0496801F047
:101C50007F03816A4A1C82620B70C18D491E090490
:101C6000090CC18518D02BE00269816A002A02683C
:101C7000526805D0D2B20A80816A491C8162ECE7C1
:101C8000C2F308020A80816A891CF7E74A68816A00
:101C90004B1C83620A70E0E70168CA6822F02002E8
:101CA000CA600168CA6822F48072CA6001684A6921
:101CB00022F001024A61202180F83A10FFF7B6FDB8
:101CC000002010BD2DE9F041044600680169E2687A
:101CD00021F4405111430161A16820690143606909
:101CE00001432068C26841F20C639A430A43C26010
:101CF00020684169A26921F44071114341614C4956
:101D000020686426322788423CD1FFF7DFF800EBD9
:101D1000C00101EB001061688900B0FBF1F5FFF72D
:101D2000D5F800EBC00101EB00106168B8468900EE
:101D3000B0FBF1F0B0FBF6F06FF01801484305EB93
:101D4000800107EB0110B0FBF6F000F0F005FFF7A3
:101D5000BDF800EBC00101EB001061688900B0FB29
:101D6000F1F0B0FBF6F005EB0015FFF7AFF800EB74
:101D7000C00101EB001061688900B0FBF1F7FFF7CB
:101D8000A5F83BE0FFF792F800EBC00101EB001073
:101D900061688900B0FBF1F5FFF788F800EBC0013E
:101DA00001EB00106168B8468900B0FBF1F0B0FBB0
:101DB000F6F06FF01801484305EB800107EB0110C6
:101DC000B0FBF6F000F0F005FFF770F800EBC00193
:101DD00001EB001061688900B0FBF1F0B0FBF6F098
:101DE00005EB0015FFF762F800EBC00101EB0010F6
:101DF00061688900B0FBF1F7FFF758F800EBC0010C
:101E000001EB001061688900B0FBF1F0B0FBF6F067
:101E10006FF01801484307EB800108EB0110B0FB9D
:101E2000F6F0216800F00F0028448860BDE8F081DA
:101E30000038014090F83910212901D00220704764
:101E40008168B1F5805F016A0BD04A1C02620268AA
:101E500009785160C18C491E0904090CC1840ED057
:101E600017E009880268C1F308015160016900297F
:101E7000016A02D0491C0162ECE7891CFBE701689A
:101E8000CA6822F08002CA600068C16841F040015F
:101E9000C160002070472DE9F0411E461746884674
:101EA0000446069D1CE0681C1AD025B1FEF78CFE86
:101EB000801BA84214D92068C16821F4D071C16088
:101EC0002068416921F001014161202084F8390036
:101ED00084F83A00002084F838000320BDE8F0813F
:101EE0002068016838EA010004D00020B842DAD046
:101EF0000020F3E70120F9E70148FFF771BB00007C
:101F0000C8000020FEE700000FB4054B10B503A980
:101F1000044A029800F0DAF810BC5DF814FB0000E7
:101F20002D2800084000002002E008C8121F08C148
:101F3000002AFAD170477047002001E001C1121F4A
:101F4000002AFBD1704700002DE9FF5F82B000211D
:101F5000DDE90430020DDDF840B0034318D044F64B
:101F60001050A2F2FF3242431514119801281FD0DD
:101F7000A5EB0B00401C5FEA000A4FF000064E4F35
:101F8000DFF83891B046504615D5CAF1000413E089
:101F9000119801244AA3012801D16FEA0B0102988C
:101FA000119AC0E90031C0E9024206B0BDE8F09FD5
:101FB000CBF10000DFE704460021404A491842EB1C
:101FC0000450CDE9001012E0E00707D032463B464E
:101FD00040464946FEF798FB8046894632463B46D6
:101FE00010461946FEF790FB06460F466410002C7B
:101FF000EAD1DDE90401DDE90023BAF1000F06DAD8
:10200000FEF782FB42464B46FEF77EFB05E0FEF7FD
:10201000EDFB42464B46FEF7E9FB04460E46002226
:10202000284BFEF76BFC03D84FF0FF30014607E06A
:102030000022254B20463146FEF770F9FEF745FC9D
:10204000102409E0002C0ADB0A220023FEF776FAAE
:10205000039B30321A55641E50EA0102F2D1641C0F
:10206000039AC4F111031444119A012A03D00122E6
:1020700008430DD10AE0084304D000204FF0110BB3
:10208000119072E7A3EB0B056D1E0DE05B4504DDBF
:102090004FF0000205F1010504E003DA4FF0000201
:1020A000A5F10105002AECD002981199C0E902318E
:1020B000C0E9004579E70000000014400000F03F4F
:1020C000300000000000F0430000E03F2DE9FF4F2A
:1020D00095B09B468946064600250FE2252877D114
:1020E00000242746F84A0121059400E0044316F82D
:1020F000013F203B01FA03F01042F7D130782A2843
:1021000011D06FF02F033078A0F13002092A16D8D1
:10211000059A44F0020402EB820203EB42021044EF
:10212000761C0590EFE759F8042B0592002A03DA94
:10213000504244F40054059044F00204761C307878
:102140002E2816D116F8010F44F004042A280DD0C9
:102150006FF02F023078A0F13003092B09D807EB7C
:10216000870302EB4303C718761CF3E759F8047B97
:10217000761C30786C280FD006DC4C2817D06828E5
:102180000DD06A2814D104E0742810D07A280FD119
:102190000DE044F400140AE044F4801401E044F437
:1021A00040147278824202D104F58014761C761CA9
:1021B000307866280BD013DC582877D009DC00284B
:1021C00075D04528F6D04628F4D047281AD19DE18D
:1021D00018E0632835D0642879D0652812D195E1BC
:1021E000702873D008DC6728F1D069286FD06E287A
:1021F0000DD06F2806D1B5E073282CD0752875D086
:10220000782874D05A46179990476D1C75E1C4F32D
:102210000250022809D003280DD0D9F80010042854
:102220000DD00D6009F1040967E1D9F80010EA1733
:10223000C1E90052F6E7D9F800100D80F2E70D7001
:10224000F0E719F8041B8DF8001000208DF801004C
:10225000EA46012003E059F804AB4FF0FF30610774
:102260004FF0000102D40DE008F101018846B942A7
:102270000FDA8045F8DB1AF808100029F4D108E0DD
:1022800008F1010188468142FADB1AF8081000299A
:10229000F6D105985B46A0EB080721463846179A09
:1022A00000F094FA284400EB080507E04DE029E12E
:1022B0000DE01AF8010B5A4617999047B8F101083A
:1022C000F7D25B4621463846179A13E142E00A22CC
:1022D0000092C4F302524FF0000A022A08D059F8C3
:1022E00004CB032A4FEAEC710AD00DE029E02AE082
:1022F00009F1070121F00702F2E802C1914609E065
:102300000FFA8CFC4FEAEC71042A03D14FFA8CFCD3
:102310004FEAEC71002907DA0A460021DCF1000CD3
:1023200061EB02012D2202E0220504D52B228DF85B
:102330000420012203E0E20701D02022F7E79046C3
:1023400059E00A2102E010220DE010214FF0000AAE
:1023500000910BE010224FF0000A44F0040408271B
:10236000009203E008224FF0000A0092C4F30252E8
:10237000022A05D059F804CB0021032A08D009E02D
:1023800009F1070121F00702F2E802C1914605E0D8
:102390001FFA8CFC042A01D10CF0FF0C4FF000084E
:1023A000220728D5702806D0009B83F0100353EA3B
:1023B0000A0305D00EE040228DF80420012208E037
:1023C0005CEA010206D030228DF804208DF8050069
:1023D00002229046009B83F0080353EA0A030AD1C5
:1023E0005CEA010201D1620705D530228DF8042094
:1023F0004FF001087F1E582804D034A003900EA887
:1024000002900DE036A0F9E753466046009AFEF7C9
:1024100095F884460398825C0298401E02900270F0
:102420005CEA0100F0D1029806A9081A00F1200A1E
:10243000600702D524F4803400E00127574502DD0F
:10244000A7EB0A0000E0002000EB0A0100900598CD
:102450004144401A0590E00306D45B462146179A92
:10246000059800F0B3F90544002706E001A85A4694
:10247000C05D179990476D1C7F1C4745F6DBE00354
:102480000CD55B462146179A059800F09FF9054444
:1024900004E030205A46179990476D1C0099481E59
:1024A00000900029F5DC08E0029802995A4600786D
:1024B000491C0291179990476D1CBAF10001AAF1CD
:1024C000010AF1DC65E100000928010030313233F6
:1024D0003435363738396162636465660000000060
:1024E000303132333435363738394142434445464A
:1024F0000000000000F058F90544761C30780028F0
:102500007FF4ECAD19B02846BDE8F08F620700D427
:10251000062709F1070222F0070CFCE80223E14636
:1025200003F000485FEA080C02D00FF2702C0DE0B7
:102530005FEA045C02D50FF2682C07E05FEAC47C16
:1025400002D00FF2602C01E0AFF2700C4FF0FF38B8
:1025500023F00043CDF850C065280CD006DC452898
:1025600009D046281DD047283DD13DE0662818D027
:1025700067287ED138E00021112F01DB112000E017
:10258000781CCDE9000106A90EA8FFF7DDFCDDE906
:102590000F010E9A03910021009207F1010A0491A4
:1025A0004DE04FF000400097CDE9011006A90EA8BC
:1025B000FFF7CAFCDDE90F0203920E9B119900227E
:1025C000DDF80CA00093049211B9791C00EB010A0C
:1025D000B7EB0A0004D4C0F1FF3007F1010A049000
:1025E000AAEB0700019044E0012F00DA0127002147
:1025F000112F01DD112000E03846CDE9000106A9C8
:102600000EA8FFF7A1FCDDE90F010E9A039100214E
:1026100004910092BA4621070CD40399514500DA7F
:102620008A46BAF1010F05DD009AAAF10101515C59
:10263000302908D0B84202DA10F1040F06DA01217D
:10264000CDE9011015E0AAF10101E9E7002805DC58
:10265000049901440491AAEB000102E0411C514598
:1026600000DD8A460499401A401C01904FF000405A
:102670000290200704D40198504501DBCDF8048076
:1026800000208DF84F0002980DF14F07B0F1004F78
:1026900025D02B200E9002984FF0020800280CDA6B
:1026A000404202902D200E9007E00A210298FDF78B
:1026B0002FFF3031029007F8011DB8F10001A8F199
:1026C0000108F2DC02980028EFD1791E0E980870FC
:1026D000307800F0200040F0450007F8020D12A805
:1026E000C01B00F107081498007800B1012000EB2E
:1026F0000A01019801EBE07105984144401A401E1F
:102700000590E00306D45B462146179A059800F031
:102710005DF805441498007818B15A461799904707
:102720006D1CE00324D55B462146179A059800F0FE
:102730004DF805441CE00498002807DBDDE903019F
:10274000884203DD0098405C179901E0179930201A
:102750005A469047049805F10105401C04900198E1
:10276000401E019004D12E205A46179990476D1CA7
:10277000BAF10001AAF1010ADDDC05E017F8010B4E
:102780005A46179990476D1CB8F10001A8F101084D
:10279000F4DC5B462146179A0598ABE62D00000055
:1027A0002B000000200000002DE9F0410446002528
:1027B0001E461746880404D405E039462020B04759
:1027C0006D1C641EF9D52846BDE8F0812DE9F04165
:1027D000044600251E469046C80301D5302700E078
:1027E0002027880404D505E041463846B0476D1CD3
:1027F000641EF9D52846BDE8F0810146002009781D
:10280000C90700D00120704701B581B00020ADF8A4
:1028100000009DF805008DF800009DF804008DF87B
:102820000100BDF800000CBD00BA704713B54FF6AB
:10283000FF73012269460248FFF710F800981CBD9B
:102840008800002010B5002821D0114B0022001F65
:10285000196803E0814203D80A4649680029F9D182
:1028600052B11368841A9C4204D100681844106065
:10287000104602E0506000E0186039B102680B1A9F
:10288000934203D10B681A4402604968416010BD4D
:10289000440000202DE9F0470024074626464FF06B
:1028A0000108DFF8489019E0C4EBC40101EB4105D1
:1028B000D7F8010005F1090101446A1D0988104497
:1028C00089B20068FEF776F930B9D7F80100415DAA
:1028D00008FA01F0304386B2641CE4B299F80000B3
:1028E000A042E1D83046BDE8F0870000000000209B
:1028F00048B1420707D000F00700C0F10800884245
:1029000003D3002070470829FBD90120704730B558
:10291000002248B9501E30BD8B1A0344845C13F862
:10292000015D85541C70521CB2EB510FF4D3002092
:1029300030BD00002DE9F0470D4606004FF00004C1
:102940003FD0002D3DD000F0EFF980462878317857
:10295000234FDFF89090884209D023A0FFF7D4FAE4
:1029600097F8B300012440F0010087F8B300D6F8CF
:102970000110D5F80100FDF7C1FD09D021A0FFF736
:10298000C3FA97F8B300012440F0020087F8B300BF
:10299000D6F80510D5F80500FDF7B0FD18D0D9F828
:1029A0000810A8EB010041F27071884210D31DA0FD
:1029B000FFF7AAFA17F8B30F012440F004003870AB
:1029C00007E021A0FFF7A0FA4FF0FF30BDE8F08745
:1029D0001CB100F0A9F9C9F808002046F6E700008C
:1029E0003B0100201C00002076616C75654C45445D
:1029F0005F537769746368204368616E6765640A32
:102A00000000000076616C756574656D70657261BB
:102A1000747572655F555058204368616E676564D0
:102A20000A00000076616C756574656D7065726191
:102A3000747572655F47697A77697473204368615A
:102A40006E6765640A00000067697A436865636BB6
:102A50005265706F7274204572726F72202C20491B
:102A60006C6C6567616C20506172616D0A000000DA
:102A70002DE9FC474FF000090500CDF80090CDF896
:102A80000490287817460C468DF8000038D0B4B36F
:102A9000AFB36846FFF7B1FE034600F101089DF8A9
:102AA000000004F10106C0070DD0217811206A1C36
:102AB000885520780121401C2070484601F07FF89D
:102AC00000B1012038709DF80000800714D52178EE
:102AD000122088552078401C207005EB08000088E3
:102AE000ADF8020080B2FFF78FFE024607490848A2
:102AF00001F0A7F8C7F801000020BDE8FC87FFE758
:102B000004A0FFF701FA4FF0FF30F6E7000020C104
:102B1000CDCCCC3D67697A44617461506F696E7445
:102B2000324576656E74204572726F72202C204992
:102B30006C6C6567616C20506172616D0A00000009
:102B40002DE9FF5F4FF00004DFF8A8900500009426
:102B5000019499F8330093468A46A44627468DF897
:102B6000000040D0BAF1000F3DD0A9F18008C007A5
:102B70006E4606D02B7801216046721C00F0FAFFE9
:102B8000012498F8B300641C80070DD5D5F8012006
:102B900019491A4801F063F880B2FFF735FE311980
:102BA000ADF809000880A41C98F8B30040070DD5C3
:102BB000D5F805201049114801F051F880B2FFF70F
:102BC00023FE3119ADF80B000880A41C89F833707E
:102BD000224669465046CBF80040FDF7B3FA002084
:102BE00004B0BDE8F09F06A0FFF78EF94FF0FF306C
:102BF000F6E70000BB010020000020C1CDCCCC3D99
:102C000067697A44617461506F696E74733252659A
:102C1000706F727444617461204572726F72202CFF
:102C200020496C6C6567616C20506172616D0A00AF
:102C30002DE9F05F074600F077F805464FF0000BEE
:102C40002A493846FFF776FE284EC73E06F1BA0AF3
:102C500006F1800406F1B409012817D124A0FFF77A
:102C600053F9524649463846FFF76AFF28B9D6F865
:102C7000BA204946142000F009FF3868C4F847001C
:102C80007868C4F84B00387A84F84F001E48B5FBCA
:102C9000F0F100FB115018BBDFF87080D8F80C0081
:102CA000A8421DD01AA0FFF72FF91048FF220121DA
:102CB0001438FDF759FA524649463846FFF740FFA7
:102CC00028B9D6F8BA204946142000F0DFFE38684B
:102CD00044F8470F78686060387A2072C8F80C5062
:102CE0005846BDE8F05FFFF7ADBD000002020020CE
:102CF0006368616E6765642C207265706F72742002
:102D0000646174610A000000C02709001C000020F3
:102D1000496E666F3A2036303053207265706F729C
:102D20007420646174610A000148406870470000C3
:102D30001400002010B5134C94F84200012819D15A
:102D400094F84100022816D2FFF7EEFFD4F85F1086
:102D5000401AC8280ED9FFF7E7FF14F8413F014693
:102D6000D4F81E2008A0FFF7CFF800F0BBFD2078B4
:102D7000401C207010BD03482221BDE810404130A6
:102D8000FDF7F9B93B0100205761726E696E673A31
:102D900067697A50726F746F636F6C526573656E9A
:102DA00064446174612025642025642025640A0040
:102DB0003EB5F8B101680091406801909DF80400AB
:102DC000401C8DF804000520FFF71EFDADF8020041
:102DD0000921684600F0C0FD8DF808000921684609
:102DE00001F010FD040003D5014605A0FFF78CF8A3
:102DF00020463EBD09A0FFF787F84FF0FF303EBDEB
:102E00004552523A20756172742077726974652058
:102E10006572726F72202564200A00004552523A92
:102E20002067697A50726F746F636F6C436F6D6D5A
:102E30006F6E41636B206461746120697320656DFE
:102E4000707479200A0000003EB50D46040021D0C0
:102E5000684600F0A5F912208DF8040060798DF81D
:102E600005000620FFF7D0FCADF802008DF80850F1
:102E70000A21684600F070FD8DF809000A216846B5
:102E800001F0C0FC040003D5014605A0FFF73CF8A3
:102E900020463EBD09A0FFF737F84FF0FF303EBD9A
:102EA0004552523A207561727420777269746520B8
:102EB0006572726F72202564200A000067697A507B
:102EC000726F746F636F6C4572726F72436D6420C2
:102ED0004572726F72202C20496C6C6567616C20A2
:102EE000506172616D0A000010B59EB004004FD0B1
:102EF000684600F055F902208DF8040060798DF8DD
:102F0000050026A02022D0E90010CDE9021026A05D
:102F1000D0E90010CDE9041026A0D0E90010CDE9D9
:102F2000081027A0D0E90010CDE9061027A10AA8B3
:102F3000FDF708F920222EA10DF15200FDF702F94C
:102F40000020CDF84A00CDF84E009DF8510040F029
:102F500002008DF851000020FFF756FCADF8480044
:102F60006F20FFF751FCADF802007321684600F0B6
:102F7000F3FC8DF872007321684601F043FC0400F5
:102F800003D5014623A0FEF7BFFF20461EB010BDAB
:102F900027A0FEF7B9FF4FF0FF30F7E730303030B1
:102FA00030303034000000003030303030303032DB
:102FB000000000003033303330303030000000008B
:102FC000303330313031303000000000393361614E
:102FD00031393739323461663466303362393934E5
:102FE0003664613931396630646334310000000081
:102FF00036373832326461363739613034323930FD
:1030000038643138626162323865636165666134A3
:10301000000000004552523A2075617274207772A8
:10302000697465206572726F72202564200A000041
:1030300067697A50726F746F636F6C47657444652B
:1030400076696365496E666F204572726F72202CD7
:1030500020496C6C6567616C20506172616D0A007B
:103060002DE9F74F82B0002602988B4635460C4674
:10307000771E78B174B1049860B1029801F0B1FA8A
:10308000C0B25FEA000808D04FF0FF094FF0020A13
:10309000364F48E036A0FEF737FF384605B0BDE8AA
:1030A000F08F01226946029801F0D1FAD0B3787806
:1030B000FF2805D19DF80000FF2805D055282BD00A
:1030C0003878012817D027E0387858B1B888042814
:1030D00022D9A84220D084F8009084F80190A7F863
:1030E00004A019E084F8009084F80190A7F804A0E7
:1030F0000120387010E0B8889DF800102154401C61
:1031000080B2B880042807D96088FFF77DFB001DD6
:1031100085B2B888A84208D09DF800007870B878C9
:10312000401CB870761C4645BBDBB98804291AD907
:10313000A94218D1204600F00FFCB988214411F8AB
:10314000011C81420CD12A4621465846FCF7FAFF61
:103150000498058000203870B880B87078709DE7BA
:103160006FF001009AE7012098E700001C000020A2
:1031700067697A50726F746F636F6C4765744F6ED6
:10318000655061636B6574204572726F72202C20EC
:10319000496C6C6567616C20506172616D0A00005A
:1031A00010B538B1002101604160FF21017041700C
:1031B000002010BD02A0FEF7A7FE4FF0FF3010BDAB
:1031C0004552523A2067697A50726F746F636F6C20
:1031D00048656164496E697420686561642069733B
:1031E00020656D707479200A000000002DE9F0431D
:1031F0008DB0984617465FEA010906464FF0000574
:1032000025D0B8F1010F2AD0781D84B223462A4672
:10321000394628A0FEF778FEFF208DF800008DF8D3
:103220000100200A8DF802008DF803403079401C1F
:103230008DF8040070798DF8050000208DF80600E7
:1032400008208DF80780B8F1010F0CD016E023A0FC
:10325000FEF75AFE4FF0FF300DB0BDE8F083357A2F
:10326000E819801DD1E78DF808502A4606F10901BA
:103270000DF10900FCF766FF05F109006D4627B165
:1032800028443A464946FCF75DFF211D684600F098
:1032900063FB2919C870211D684601F0B3FA0100CB
:1032A00005D514A0FEF730FE6FF00100D4E7002032
:1032B000D2E700006C656E203D202564202C207331
:1032C0004469644C656E203D202564202C64617443
:1032D000615F6C656E203D2025640A005B4552529B
:1032E0005D202064617461204973204E756C6C20F0
:1032F0000A00000075617274207772697465206538
:1033000072726F72202564200A0000002DE9F84FC8
:103310000C000A9D94F800801E4691464FF0FF3B3A
:1033200003D016B10DB120B15AE02EA0FEF7ECFD8E
:103330002EE0384814210090FCF71DFF354F4FF068
:10334000000A633FB8F1050F30D0B8F1110F03D078
:10335000B8F1120F44D10BE02FA0FEF7D5FD2D4A96
:10336000601C5B320099FFF783FB0120387035E069
:1033700032A0FEF7C9FD274861781D3000F13A02FE
:1033800080F83310911F0C464730FFF7D9FB10B17E
:103390005846BDE8F88FD7F8BA202146701CFCF7D4
:1033A000D1FE132030700720286019E01948A9F1D8
:1033B0000102611C4838FCF7C5FEA9F10100C7F8FD
:1033C0003500144817F8632F401C1021115417F8CA
:1033D0001F09401CF877032007F8440CC5F800A02B
:1033E0000020D6E767697A50726F746F636F6C491B
:1033F000737375656450726F636573732045727281
:103400006F72202C20496C6C6567616C2050617272
:10341000616D0A009E010020414354494F4E5F45B3
:103420004C4F4E474154455F434F4E54524F4C5FB3
:10343000444556494345200A000000004143544991
:103440004F4E5F454C4F4E474154455F52454144B6
:103450005F4445565F535441545553200A000000C1
:103460002DE9F041050031D02889FFF7CDF98C4FC7
:1034700028818C4E38784FF00208C0F38001287AFA
:1034800006F17804C0F38002914241D042074FF028
:1034900000014FEAC07020D550B196F87700015571
:1034A00096F87700401C86F877007FA0FEF72CFD89
:1034B000287A80072CD596F877100120085596F8C1
:1034C0007700401C86F877007FA01FE085A0FEF7FC
:1034D0001BFD4FF0FF30BDE8F08150B196F877004A
:1034E000015596F87700401C86F877006EA0FEF72D
:1034F0000BFD287A80070BD596F8771001F8048029
:1035000096F87700401C86F8770082A0FEF7FCFC56
:103510003878297AC0F3C003C1F3C00293421BD0AC
:1035200062F3C300387008070AD596F877100320B5
:10353000085596F87700401C86F877007CA009E0D3
:1035400096F877100420085596F87700401C86F806
:1035500077007FA0FEF7D8FC3878297AC0F30013F3
:10356000C1F3001293421BD062F304103870C806F6
:103570000AD596F877100520085596F87700401C74
:1035800086F877007AA009E096F8771006200855AB
:1035900096F87700401C86F877007DA0FEF7B4FC13
:1035A0003878297AC0F34013C1F3401293421BD0FC
:1035B00062F34510387088060AD596F87710072010
:1035C000085596F87700401C86F8770079A009E046
:1035D00096F877100820085596F87700401C86F872
:1035E00077007BA0FEF790FC7878697AC0F3C0037F
:1035F000C1F3C00293421BD062F3C3007870080786
:103600000AD596F877100B20085596F87700401CDD
:1036100086F8770076A009E096F877100C20085518
:1036200096F87700401C86F8770078A0FEF76CFCCF
:103630007878697AC0F30013C1F3001293421BD06B
:1036400062F304107870C8060AD596F8771009203E
:10365000085596F87700401C86F8770073A009E0BB
:1036600096F877100A20085596F87700401C86F8DF
:10367000770075A0FEF748FC16F8771F0D20085557
:103680003078401C3070687A00F0070186F85910D5
:1036900074A0FEF739FC06F8778C00201BE70000C9
:1036A000220000203B0100204F6E426F617264696E
:1036B0006E673A20536F66744150206F72205765D1
:1036C00062206D6F64650A004F6E426F61726469BB
:1036D0006E673A204169724C696E6B206D6F64654C
:1036E0000A00000067697A50726F746F636F6C4DE7
:1036F0006F64756C65537461747573204572726F75
:1037000072202C20496C6C6567616C20506172617D
:103710006D0A00004F6E426F617264696E673A20F5
:1037200053746174696F6E206D6F64650A000000E8
:1037300057694669207374617475733A20696E2005
:1037400062696E64696E67206D6F64650A000000CF
:1037500057694669207374617475733A206F757484
:103760002062696E64696E67206D6F64650A00008F
:1037700057694669207374617475733A20636F6E7C
:103780006E656374656420726F757465720A0000FB
:1037900057694669207374617475733A206469735C
:1037A000636F6E6E656374656420726F75746572A5
:1037B0000A00000057694669207374617475733A92
:1037C00020636F6E6E6563746564206D326D0A00F0
:1037D00057694669207374617475733A206469731C
:1037E000636F6E6E6563746564206D326D0A0000F0
:1037F00057694669207374617475733A20617070FB
:1038000020636F6E6E6563740A0000005769466935
:10381000207374617475733A206E6F20617070202C
:10382000636F6E6E6563740A000000005769466935
:10383000207374617475733A20696E2074657374B3
:10384000206D6F64650A00005769466920737461D2
:103850007475733A206F75742074657374206D6F7E
:1038600064650A0052535349206973202564200A75
:103870000000000010B518B314498268134C41F8D9
:10388000512FC2684A60028A0A81807C803C88721B
:10389000B4F8D1006D34FEF7B7FFA4F86400E06E11
:1038A000FEF7C2FFE066A27F04F11F000E21115453
:1038B000A07F401CA077042004F86D0C002010BDF0
:1038C00003A0FEF721FB4FF0FF3010BDBB0100202D
:1038D0004552523A204E545020697320656D7074E1
:1038E00079200A0010B50D4C94F84200002813D03E
:1038F0000BA0FEF709FBB4F85D1004F1430000F0E3
:1039000081FFB4F85D10814202D00DA0FEF7FCFAF1
:10391000FFF70AFAC4F85F0010BD00003B01002069
:103920005761726E696E673A2074696D656F757460
:103930002C20726573656E642064617461200A00D6
:103940004552523A20726573656E642064617461F9
:10395000206572726F720A0010B503004FF000000C
:1039600003D011B10222491E05E0002010BD9C5C6D
:10397000521C2044C0B28A42F9D310BD70B50D4626
:10398000040016D022210E48FCF7F5FB0C482A460D
:103990002146801CFCF7D6FB094C0120413CA4F8D1
:1039A0005D5084F842004334FFF7BEF9E061002027
:1039B00070BD04A0FEF7A8FA4FF0FF3070BD000004
:1039C0007C0100204552523A206461746120697381
:1039D00020656D707479200A0000000010B50A4956
:1039E00058B109790079491C814204D10648222145
:1039F000801EFCF7C0FB002010BD04A0FEF784FA77
:103A00004FF0FF3010BD00007E0100204552523AB9
:103A1000206461746120697320656D707479200A77
:103A20000000000070B50D464FF0FF3458B10A4653
:103A30000146064800F04AFEA84203D004A0FEF763
:103A400063FA204670BD09A0F9E700005902002082
:103A50004552523A204661696C656420746F207249
:103A6000625772697465200A000000004552523A9C
:103A70002067697A507574446174612062756620AC
:103A8000697320656D707479200A000030B50B00F1
:103A900002F1060187B08CB233D0FF218DF80010FF
:103AA0008DF80110210A8DF802101C4D05218DF8AA
:103AB00003408DF8041055F8391F8DF80510491C86
:103AC000296000218DF806108DF807108DF8080088
:103AD00019460DF10900FCF735FB211D6846FFF77B
:103AE0003BFF0DEB0401C870211D684600F08AFE03
:103AF00001000CD50AA0FEF707FA6FF0010007B02D
:103B000030BD0EA0FEF700FA4FF0FF30F7E7211DA1
:103B10006846FFF733FF0020F1E700003B0100207B
:103B20004552523A2075617274207772697465202B
:103B30006572726F72202564200A000067697A52EC
:103B400065706F727444617461204572726F722087
:103B50002C20496C6C6567616C20506172616D0A44
:103B60000000000002484168491C416070470000A5
:103B70001400002070B51400064608D0F508FEF7C2
:103B8000B7FE06F0070128B1012807D015E04FF075
:103B9000FF3070BD605D8B4018430DE0DEB2C1F1B7
:103BA0000800C640FF22C24060191A4043788A408C
:103BB00033434370605D10436055002070BD2DE9B4
:103BC000F0431F468DB013000E4680464FF00005AF
:103BD0004FF0FF391BD0D7B14FEAD8043A46194607
:103BE0006846FCF7AFFA012F05D939466846FEF75B
:103BF0008EFE401C0BD031464046FEF779FE6A46E9
:103C0000FF2308F0070130B101280BD017E0484628
:103C10000DB0BDE8F083155DC6F10800CD40C3408E
:103C20001D400CE01019125D4578C1F10800361AEC
:103C3000C6F10806F3401D40CA408540154328469A
:103C4000E6E770B505460C461046FCF70EFC294623
:103C5000FCF7F4FA2146BDE87040FCF797BA10B5BE
:103C600004461046FCF7E4FA2146FCF719FBBDE8D0
:103C70001040FCF7FFBB00002DE9FF470C46060093
:103C80004FF0000508D03CB1DFF8C4804FF4004984
:103C9000DFF8C0A0304F56E04FF0FF3004B0BDE871
:103CA000F0877019407813284BD2DFE800F04A4AB9
:103CB0004A4A4A4A4A4A4A4A4A4A4A2C33402F0AFE
:103CC00020002178397025A0FEF71EF938780128E8
:103CD00008D0012188F800100A4649465046FCF7F2
:103CE0006EFF2EE0002188F800100A46F5E7D4F8B0
:103CF0000100C7F80100FCF7D1FB02460B461EA0ED
:103D0000FEF702F91DE0217823A018E025A0FEF7B8
:103D1000FBF816E02079A2796179A3688DE80F009D
:103D2000E378A278218824A0FEF7EEF809E02DA020
:103D3000FEF7EAF830A0FEF7E7F8217832A0FEF7A8
:103D4000E3F86D1CEDB23078A842AAD80020A5E7B0
:103D50001000002000080140320100204576743A2E
:103D6000204556454E545F4C45445F537769746314
:103D700068202564200A00004576743A4556454E71
:103D8000545F74656D70657261747572655F5550CE
:103D900058202534660A0000525353492025640AEE
:103DA000000000005452414E53504152454E545F62
:103DB00044415441200A0000574946495F4E54503F
:103DC000203A205B25642D25642D25642025303282
:103DD000643A253032643A253032645D5B25645D97
:103DE000200A00004D4F44554C4520494E464F2077
:103DF0002E2E2E0A00000000574946204D4F4455F4
:103E00004C45202E2E2E0A006D6F64756C6554791A
:103E10007065203A205B25645D200A002DE9F04F93
:103E20004FF0000491B05FEA000B2546ADF8384032
:103E3000A24626460F940ED0FEF77CFF824F0EAAB4
:103E4000791C07F58F70FFF70BF907F1DD0950B109
:103E5000801C72D0B0E07DA0FEF756F84FF0FF3026
:103E600011B0BDE8F08F83A0FEF74EF8FEF75CFFBF
:103E70000146BDF8382084A0FEF746F806E0381960
:103E8000417886A0FEF740F8641CA4B2BDF8380063
:103E90008442F4D383A0FEF737F878797C1CB846C7
:103EA0000F284FD00ADC0E2816D2DFE800F0151BD1
:103EB000151F1515473B15154715473F182859D0AD
:103EC00006DC112878D014284FD0162804D135E00C
:103ED000222857D02A2831D002212046FEF7B4FFED
:103EE00071A067E02046FEF7FFFF65E0E279A17967
:103EF00073A0FEF709F80FA80090BDF8380008EB92
:103F00000601821B01AB50460931093AFFF7FEF961
:103F1000002851D1E37901A920460F9AFFF766F9ED
:103F20006BA047E02046FEF743FF45E02046FEF742
:103F30003FFF2046FFF794FA3EE047E02046FFF7B8
:103F40004DFD39E02046FEF733FF64A0FDF7DCFFAE
:103F5000FEF7EAFE04464FF41676FEF7E5FE001B78
:103F6000B042FAD900F038FB26E02046FFF736FDD4
:103F70005FA01FE02046FFF731FD2046FFF77AFCE7
:103F800063A017E02046FFF729FD412204F1080154
:103F90004846FCF7D7F82C4898F89F20A0300F210E
:103FA000115498F89F00401C88F89F00052088F85D
:103FB00000005DA0FDF7A8FF234C38786334062885
:103FC0002AD2DFE800F0290D13212E36781C0121BA
:103FD000FEF73AFF5BA0FDF797FF6FF001003FE7A8
:103FE000194909223D70BE31204606E016493D7050
:103FF000D031A1F1590001220446FFF73DFE142102
:104000002046FCF7B8F807E00F493D70D7F8352097
:104010001B312046FFF730FE5846FEF709FE002010
:104020001EE709490C22D131A1F146003D7004463A
:10403000E3E705483D709F30412249460446FFF7BB
:104040001BFE4121DCE700003B01002047697A7735
:1040500069747348616E646C65204572726F72207A
:104060002C20496C6C6567616C20506172616D0A2F
:1040700000000000476574204F6E65205061636B3F
:104080006574210A0000000057694669324D4355A6
:104090005B2534643A2534645D3A2000253032785B
:1040A000200000000A0000004552523A20636D646F
:1040B00020636F6465206572726F72210A000000D0
:1040C000666C6167202578202578200A00000000B2
:1040D00041636B44617461203A200A007265706F1D
:1040E00072743A4D4355207265626F6F74210A00F5
:1040F00041636B2050524F44554354494F4E5F4DDE
:104100004F44452073756363657373200A00000094
:1041100041636B204745545F555454207375636366
:10412000657373200A00000041636B204745545FAC
:104130004D6F64756C652073756363657373200AD6
:10414000000000004552523A20636865636B20739B
:10415000756D206572726F72210A00000A4810B5F1
:104160003421016000F11001C16000F067FA48B12C
:1041700006A0FDF7C9FEBDE810404FF48F71084856
:10418000FBF7F9BF07A0F4E75902002072624372FF
:1041900065617465204661696C64200A0000000056
:1041A0003B01002072624372656174652053756340
:1041B00063657373200A0000F0B506460024354D90
:1041C000092787B0062E5FD2DFE806F0030D0D3415
:1041D00054596846FEF7E4FF0B202FE001462EA05D
:1041E000FDF792FE43E003A8FEF7DAFF8DF81070AA
:1041F00055F8390F8DF81100401C28608DF81460B7
:104200000620FEF701FBADF80E000A2103A8FFF718
:10421000A3FB8DF815000A2103A800F0F3FA0400AF
:1042200003D501461CA0FDF76FFE0A2103A8FFF786
:10423000A5FB2CE06846FEF7B3FF13208DF80400C1
:1042400055F8390F8DF80500401C28600520FEF751
:10425000DBFAADF8020009216846FFF77DFB8DF817
:1042600008000921684600F0CDFA0400B6D40921FF
:104270006846DCE76846FEF793FF1520DEE76846F0
:10428000FEF78EFF2920D9E70AA0FDF73DFE07B013
:104290002046F0BD3B0100204552523A2075617224
:1042A00074207772697465206572726F722025645C
:1042B000200A00004552523A204366674D6F6465FC
:1042C000206572726F72210A0000000010B504A010
:1042D000FDF71AFEBDE810400020FFF76DBF00009B
:1042E0004B455931205052455353204C4F4E472097
:1042F0002C576966692052657365740A00000000D6
:1043000010B504A0FDF700FEBDE810400320FFF744
:1043100053BF00004B455931205052455353202C78
:1043200050726F64756374696F6E204D6F64650AB7
:104330000000000010B506A0FDF7E6FD0122D10344
:104340000B48FCF73CFCBDE810400220FFF734BFEF
:104350004B455932205052455353204C4F4E472025
:104360002C4169724C696E6B206D6F64650A0000A8
:104370000008014010B504A0FDF7C6FDBDE81040DF
:104380000120FFF719BF00004B455932205052451C
:104390005353202C536F6674204150206D6F646519
:1043A0000A0000002DE9F0410646002400F0D6F98D
:1043B000050032D0A8044FF0010712D414E0D6F85B
:1043C0000110C4EBC40000EB40000B5C07FA03F2E1
:1043D0002A4204D00D300844006800B18047641CB4
:1043E000E4B23078A042EAD8280416D5002411E0BF
:1043F000D6F80110C4EBC40000EB40000B5C07FAD8
:1044000003F22A4204D011300844006800B180470A
:10441000641CE4B23078A042EAD8BDE8F081000024
:1044200000B589B015491648CDE900014FF4806305
:10443000144A002102A800F031F8152202A91248FE
:10444000FBF780FE11491248CDE900014FF480735B
:10445000104A002102A800F021F80B48152202A9F9
:104460001530FBF76FFE0C490748C1F8010009B091
:1044700008465DF804EB00F031B80000CD420008BA
:1044800001430008000C01400801002035430008EA
:1044900075430008000801400000002030B587B0D7
:1044A000DDE90A45CDF80110CDF805200A4ACDF81E
:1044B0000930D178491CD1708DF80010CDF8115019
:1044C000CDF80D401178491C117015226946FBF793
:1044D00039FE07B030BD00002C000020002806D0B7
:1044E0000349097801700C2901D90C21017070472A
:1044F0002C000020FCF776FBFDF7B9FAFDF72CFA4B
:10450000FDF770FA29482849002401604FF4E13191
:10451000C0E901140C25C460C0E904458461C4618C
:10452000FDF7E6F800B1FEE7204821494030016080
:104530004FF41651C0E90114C460C0E90445846118
:10454000C461FDF7D5F800B1FEE7002201211C206F
:10455000FCF7BCFB1C20FCF7ADFB0022114626201B
:10456000FCF7B4FB2620FCF7A5FB00F03BF900F0BC
:104570003FF900F0C3F9FFF7F1FDFFF751FF0DA080
:10458000FDF7C2FC00224FF400410F48FCF717FB77
:104590000E4C0F494FF03330C4E9020100F08EF9A0
:1045A0000C48FFF73BFCF4E700380140880000208E
:1045B000004400404D435520496E69742053756393
:1045C00063657373200A00000008014000000020AA
:1045D0003333394032010020012080F31388FCF787
:1045E000A7BB00B5010006D04A688868824205D1A1
:1045F0004FF0000000BD4FF0FF3000BD02D2A0EB35
:10460000020000BD084600F013F84A688968511A94
:10461000401A00BD00B5010007D000F009F80346BC
:104620000846FFF7DEFF181A00BD4FF0FF3000BD4F
:1046300008B1006870474FF0FF30704720B1C16883
:1046400041608160002070474FF0FF3070472DE9D6
:10465000F041040015460F464FF0FF3020D0002FE8
:104660001ED06068A1688842204609D2FFF7B9FFD2
:10467000A84203D82046FFF7B4FF0546616807E06B
:10468000FFF7D6FF6168E2688A1A801AA84209D942
:104690002A463846FBF756FD606828446060284685
:1046A000BDE8F0812046FFF7C3FF6168E2688A1A1F
:1046B000861A32463846FBF745FDE0686060AA1B63
:1046C000B9192046FFF7C3FF3044E9E72DE9F0416F
:1046D00015460F46040008D03FB1FFF79BFFA842E4
:1046E00006D86FF00100BDE8F0814FF0FF30FAE727
:1046F0006168A068814229D82046FFF799FF0146EA
:10470000A068E268821A8E1AB54212D82A46394643
:10471000FBF718FDA0682844A0602046FFF788FF3B
:104720000146E068A2680144914200D1A060284699
:10473000D9E732463946FBF705FDE068A060AA1BC1
:10474000B9192046FFF7C2FF3044CCE72A46394664
:10475000FBF7F8FCA0682844E8E7000070B5204C9F
:10476000012600252179491CC9B221711E2902D3D5
:104770002571667002E0617801292ED16570FEF71F
:1047800089F8A17831B1012908D002290ED0032976
:1047900023D11FE008B32081A6701EE02189884242
:1047A00002D10220A07018E0A57016E0218988428D
:1047B00004D0A570E58041F4005070BDE188491C2B
:1047C00089B2E180642908D3E5800321A17040F417
:1047D000004070BD21898842E6D1002070BD0000F4
:1047E0002C0000200148FCF7AFBD0000480000206D
:1047F000012202490248FCF7EFBF0000140000202C
:10480000C8000020F8B5050021A00E4600684FF052
:104810000004009001D01F4F1AE04FF0FF30F8BDA8
:10482000291901221B48FDF776F897F8390020284E
:10483000FBD1022C0BD3285DFF2808D10122694649
:104840001448FDF768F897F839002028FBD1641C5C
:10485000B442E5D310483246416810A0FDF754FB3E
:1048600000240DE0295D12A0FDF74EFB022C06D3BB
:10487000285DFF2803D155210DA0FDF745FB641CE1
:10488000B442EFD30CA0FDF73FFB3046F8BD00006B
:1048900055000000C8000020140000204D43553290
:1048A000576946695B2534643A2534645D3A2000D3
:1048B00025303278200000000A00000010B50B48B7
:1048C0000D490B4C0278D1E900010A4B42B100229C
:1048D0002270FBF723FDFBF7F4FDC4F8050010BDC3
:1048E000012222700022FBF7BAFDF4E7100000203D
:1048F000320100200000F03F0800002002480021A3
:104900000160416001727047320100200000000028
:10491000000000000102030406070809000000006F
:104920000102030444490008000000204800000080
:10493000281F00088C490008480000205822000069
:10494000381F000800000000000000000000000008
:104950000000000000000000000000000000000057
:104960000000000000000000000000000000000047
:10497000000000FF000000000000000000A24A0448
:0C4980000000000000000000000000002B
:04000005080000ED02
:00000001FF
